:100000004CC070C039CB83CA6DC037CA6BC0E4CA5C
:1000100069C068C067C066C039CB64C063C0FF8078
:100020008080808080808080808080E08094FC7CE4
:100030003C1C0C0484C4E4F48080808C803280609A
:1000400088A8904028D0082078B048E0A0F068D870
:100050005010C030187098B8C88080808080806050
:1000600088A8904028D0082078B048E0A0F068D850
:100070005010C030187098B8C80000000037000158
:1000800002040810200000000038000202020202F0
:100090000201030000040000500B11241FBECFE535
:1000A000D2E0DEBFCDBF21E0ACE9B0E001C01D92DF
:1000B000AB3CB207E1F710E0A0E6B0E0E6EBFEE112
:1000C00002C005900D92AC39B107D9F710E0CDE42C
:1000D000D0E003C02197FE01BDDECC34D107D1F7BB
:1000E0003EDBE7CE8DCF809160008F3F29F189B74D
:1000F0008B7989BF10BE8CB581788CBD1FBC1EBCAE
:100100001BBC1DBC89B78B7989BF84E688BF80E49E
:100110008CBD8FEF8DBD86EC80BFE091C200F09169
:10012000C300309731F08091C10090818095892380
:1001300080838FEF809360000895449A4398469897
:10014000479AECEEF0E0118A0784F089E02D82A155
:1001500093A191A380A308958F7787B987B187B9B9
:10016000369A3699FECF84B195B108953FB7F89489
:100170008091B9009091BA00A091BB00B091BC00F1
:1001800022B708B601FE05C02F3F19F00196A11D48
:10019000B11D3FBFBA2FA92F982F8827BC01CD01D1
:1001A000620F711D811D911D44E0660F771F881F2E
:1001B000991F4A95D1F70895CF92DF92EF92FF925F
:1001C000CF93DF936B017C01D1DFEB01CFDF6C1BA1
:1001D0007D0B683E7340A0F0C114D104E104F1042A
:1001E00039F4DF91CF91FF90EF90DF90CF90089599
:1001F00081E0C81AD108E108F108C851DC4FE6CF08
:10020000C114D104E104F10409F7EBCF2FB7F8943E
:100210006091B5007091B6008091B7009091B800E0
:100220002FBF0895CF92DF92EF92FF92CF93DF938B
:100230006B017C01EA01EADF20918B0130918C0196
:10024000232B59F020919B0130919C01F0E0E0E0DC
:10025000232BA9F4EBE9F1E002C0EBE8F1E0D18354
:10026000C083138212826483758386839783C086DA
:10027000D186E286F3861486158616861786CF0108
:10028000DF91CF91FF90EF90DF90CF900895089588
:100290002FB7F894FC01458556853AE0609508949F
:1002A00020F478B3752378BB04C078B3742B78BB83
:1002B0000000DCD9DBD9DAD9D9D966953A9581F72E
:1002C0002FBF81E090E00895CF93DF936DE08CEE37
:1002D00090E0DEDFEC016AE08CEE90E0D9DF8C0F7D
:1002E0009D1FDF91CF910895DC011F96ED91FC9148
:1002F00020A131A182A193A12817390779F0A2A1E9
:10030000B3A1AE0FBF1F8C9122A133A12F5F3F4F2E
:100310002F71332733A322A390E008958FEF9FEF2F
:100320000895DC011F96ED91FC9120A131A182A1DD
:1003300093A12817390739F082A193A1E80FF91F7B
:10034000808190E008958FEF9FEF0895DC011F9664
:10035000ED91FC9180A191A122A133A1821B930B6D
:100360008F7199270895CF92DF92EF92FF920F93AA
:100370001F93CF93DF936C01EB017B01E40EF51E1D
:1003800010E000E0CE15DF0561F06991D601ED9136
:10039000FC910190F081E02DC6010995080F191F0D
:1003A000F1CFC801DF91CF911F910F91FF90EF9096
:1003B000DF90CF900895F89414BE81B5886181BD17
:1003C00011BC7894089522DF68517C4F8F4F9F4F66
:1003D0006093AC007093AD008093AE009093AF003B
:1003E000089587FF09C08F7771F1813071F18230F4
:1003F00071F1833071F18FEF90E0FC01EF56FF4F08
:100400003491FC01E158FF4F2491FC01E557FF4F67
:10041000E491EE23B9F0332329F03130E1F48AB5C9
:100420008F778ABDF0E0EE0FFF1FEB57FF4FA591CE
:10043000B4918FB7611120C0F894EC9120952E23D0
:100440002C938FBF089585E0D7CF82E0D5CF84E08D
:10045000D3CF83E0D1CF323019F48AB58F7DE1CF8D
:10046000333021F480B78F7D80BFDCCF3430D1F6BC
:100470008CB58F7D8CBDD6CFF894EC912E2BE0CF30
:1004800060E083E0AEDF8091A80081112CCE08955A
:10049000F7DF85E090E09093B3008093B200609125
:1004A000A2007091A30090E080E04FE153E0BADE3B
:1004B00080E00895CF93DF9390E0FC01E158FF4F77
:1004C000249185579F4FFC0184918823C9F090E0C7
:1004D000880F991FFC01E758FF4FA591B491FC01CB
:1004E000EB57FF4FC591D49161110DC09FB7F894A0
:1004F0008C91209582238C938881282328839FBF09
:10050000DF91CF910895623051F49FB7F8943C91F8
:10051000822F809583238C93E8812E2BEFCF8FB78A
:10052000F894EC912E2B2C938FBFEACFCF92DF92D1
:10053000EF92FF9240916000443071F4C090C4008B
:10054000D090C500E090C600F090C700C616D70650
:10055000E806F90609F461C06B017C01C092C40091
:10056000D092C500E092C600F092C7004F3F11F54F
:1005700010BE8CB581788CBD1FBC1EBC1BBC1DBCC5
:1005800089B78B7989BF88B7846688BF80E880BFC8
:100590001092C3001092C2001092C1008CB58F7DE2
:1005A0008CBD8CB580618CBD61E084E083DF84E02C
:1005B0008093600080916000843079F580B7807FFF
:1005C00080BF1FBC60E874E88EE190E0A70196014F
:1005D0001FDC81E08F5F56954795379527952F3F14
:1005E00031054105510519F010F08F3099F79FEF53
:1005F000920F9DBD21503109410951092EBD4FEF88
:100600005FEFBA014093BD005093BE006093BF00FE
:100610007093C00090B7892B80BFFF90EF90DF9060
:10062000CF90089561E083E0DCDE8091A80088230C
:1006300029F068E572E080E090E078CF089580913D
:10064000A6009091A70081309105D1F41092A500E9
:100650001092A40081E090E09093B3008093B200E8
:100660001092A7001092A600DDDF6091A2007091A9
:10067000A30090E080E048E452E0D4DD80E00895FB
:1006800082309105C1F41092A5001092A40082E07E
:1006900090E09093B3008093B2001092A700109264
:1006A000A600C0DF8091A2009091A30063E070E0FB
:1006B00071DBBC01DECF8330910541F2049719F361
:1006C000DFDE1092B3001092B2001092A7001092D9
:1006D000A600D4CFCF93DF93FC0101900020E9F76F
:1006E0003197AF01481B590BBC018CEE90E03BDE0B
:1006F000EC01EADD8C0F9D1FDF91CF9108951092E0
:10070000B3001092B20085E790E0E4DF16DD62E00E
:1007100080E0D0DE62E081E0CDCEA6E2B1E085E609
:10072000FD0111928A95E9F7EEEFF0E0B28FA18F0B
:100730001386158E148E138E118660E0878151CE3C
:10074000CF93DF93EB0173DA8883CE01DF91CF91F2
:100750000895CF92DF92EF92FF920F931F93CF9362
:10076000DF93EB017B0129E2E20EF11C8B016C01AE
:10077000C61AD70AC601800F911F59DAF801819372
:100780008F01EE15FF05B1F7CE01DF91CF911F91DB
:100790000F91FF90EF90DF90CF900895FF920F930D
:1007A0001F93CF93DF93EC018B01FB01F0803FDAC5
:1007B000F81619F06F2DCE0142DAF801F18021967A
:1007C000CE0135DAF81619F06F2DCE0138DAC801EE
:1007D000DF91CF911F910F91FF9008954F925F92FB
:1007E0006F927F928F929F92AF92BF92CF92DF9241
:1007F000EF92FF920F931F93CF93DF93CDB7DEB7A6
:10080000C655D1090FB6F894DEBF0FBECDBF80919B
:10081000B2009091B300069721F5F89480911E01E3
:1008200090911F01A0912001B09121010196A11D7D
:10083000B11D80931E0190931F01A0932001B093DE
:100840002101789480911A0190911B0183309105C8
:100850000CF097C0813091050CF01EC2892B09F471
:10086000C3C081E879DC63E270E094DA6FEF73E093
:10087000BBDA6B5F7F4F6B01F12CE12CC092610002
:10088000D0926200E0926300F092640060EB74E04A
:1008900080E090E0A7019601BBDA3093A30020939B
:1008A000A200C701B60135D99B01AC012093FE001F
:1008B0003093FF00409300015093010160E070E02D
:1008C00086E994E4D3D93ADA60930E0170930F016C
:1008D000809310019093110180E83EDCE090A0002D
:1008E000F090A1009C012F5F31402F34310508F4B6
:1008F00095C2245B31092F34310508F4B6C2815208
:1009000093408F34910508F4B3C2E114F10409F463
:1009100097C20091B2001091B30055DD77DC809052
:100920009C0090909D00A0909E00B0909F0024019C
:100930003501EAE04E0E511C611C711C64157505F1
:1009400086059705C8F062DCF8EE8F0EF3E09F1E77
:10095000A11CB11C681579058A059B0568F4063051
:10096000110521F00930110509F01AC3D6DE88DD22
:100970001092B3001092B2001092A1001092A00049
:100980005FC2883091050CF4DFC1089709F069CF88
:10099000109202018091040190910601992309F4BB
:1009A00075C161E01EDD61E0809105011ADD4091B5
:1009B0001E0150911F0160912001709121018091D1
:1009C000220190912301A0912401B0912501841767
:1009D0009507A607B70708F044CF109208011092B8
:1009E0001B0110921A013DCF109202018091030168
:1009F000882309F436CF80901E0190901F01A090AB
:100A00002001B090210100911201602F0F3108F0F8
:100A10006EE170E090E080E020E63AEE40E050E0E9
:100A2000CAD9860E971EA81EB91E809213019092F5
:100A30001401A0921501B0921601E0901701F090F8
:100A4000180160910E0170910F0180911001909139
:100A5000110126E2E21621E0F206D1F520911901FA
:100A6000211136C0E09126010E2E000CFF0BE25042
:100A7000F040E491E093190120910801222341F113
:100A800028E030E030931B0120931A01C0901E0132
:100A9000D0901F01E0902001F090210127E030E08C
:100AA00040E050E088D9C60ED71EE81EF91EC0925D
:100AB0002201D0922301E0922401F0922501C092FC
:100AC0002201D0922301E0922401F0922501C9CEA7
:100AD00010911901112309F494C0103819F11F3F26
:100AE00009F05BC0C0901E01D0901F01E090200172
:100AF000F090210127E030E040E050E05CD9C60EE4
:100B0000D71EE81EF91EC0922201D0922301E09266
:100B10002401F092250185E090E090931B018093E1
:100B20001A019FCE80901E0190901F01A09020017D
:100B3000B090210123E030E040E050E03CD9860E47
:100B4000971EA81EB91E8092220190922301A092A6
:100B50002401B092250184E090E090931B018093E2
:100B60001A01C70101969093180180931701809193
:100B700009018F5F80930901D7011196EC91E11172
:100B800003C0109219016DCE0E2E000CFF0BE25027
:100B9000F040E491E093190164CEC0901E01D09022
:100BA0001F01E0902001F090210117FF1BC023E0FE
:100BB00030E040E050E0FFD8C60ED71EE81EF91E18
:100BC000C0922201D0922301E0922401F0922501EB
:100BD00082E090E090931B0180931A01110F109313
:100BE00019013FCEC60ED71EE81EF91EC092220183
:100BF000D0922301E0922401F092250181E090E05F
:100C0000E9CF27E030E040E050E0D5D8AB01BC01AF
:100C100080911E0190911F01A0912001B0912101AE
:100C2000840F951FA61FB71F01110BC080932201CF
:100C300090932301A0932401B093250187E090E0D5
:100C40006CCF88169906AA06BB06B8F480911E01DF
:100C500090911F01A0912001B0912101840F951F57
:100C6000A61FB71F8093220190932301A093240114
:100C7000B093250186E090E050CF809222019092BF
:100C80002301A0922401B0922501F4CF882311F012
:100C900060E0A7DB60E088CE81E080930201809174
:100CA000040190910601992319F061E09ADB02C0DA
:100CB0008111FBCF61E08091050193DB40911E0122
:100CC00050911F01609120017091210180912201BA
:100CD00090912301A0912401B091250184179507DB
:100CE000A607B70708F0BDCD10920201809106015A
:100CF00061E0811107C080910401882311F060E058
:100D000070DB60E0809105016CDB80911E019091A9
:100D10001F01A0912001B091210140910E0150913D
:100D20000F016091100170911101840F951FA61F92
:100D3000B71F8093220190932301A0932401B093C5
:100D4000250183E090E0E9CE109202018091060136
:100D500061E0811107C080910401882311F060E0F7
:100D600040DB60E0809105013CDB40911E01509129
:100D70001F016091200170912101809122019091C9
:100D80002301A0912401B091250184179507A6079E
:100D9000B70708F066CD80911A0190911B0185304C
:100DA0009105F1F4E0911701F0911801CF0101963E
:100DB0009093180180931701809109018F5F8093B0
:100DC0000901E181E11103C01092190108CE0E2E34
:100DD000000CFF0BE250F040E491E0931901FFCDCD
:100DE000079709F0FCCDE6E2F1E085E6DF011D9210
:100DF0008A95E9F710920701109209018091060186
:100E0000882329F060E080910501EBDAE8CD80913C
:100E100004018823B9F360E0E4DAF4CF01E010E0E4
:100E2000E114F10441F51093A1000093A000EED964
:100E300060939C0070939D0080939E0090939F0010
:100E4000E091B200F091B300EA30F10508F006C17C
:100E5000E55DF84F0994CBC01CC164C1FFC0FEC062
:100E60009DC1C1C1DBC1DCC1D9C102E010E0D8CF56
:100E700003E010E0D5CFCAD9AB01BC0180919C0042
:100E800090919D00A0919E00B0919F0088519C4F31
:100E9000AF4FBF4F84179507A607B70788F6B7E08F
:100EA000EB16F10469F20230110591F003301105DF
:100EB000D9F189DA89E090E09093B3008093B20091
:100EC000B1DB87E090E09093A1008093A000B8CFC1
:100ED0008091A8008823B1F01092A8001A8219828C
:100EE000BE016F5F7F4F81E890E058DC60E971E000
:100EF00080E090E01BDB68EC70E080E090E05CD983
:100F0000F2D8DFCF81E08093A80081E090E09A835F
:100F10008983BE016F5F7F4F81E890E03FDC68EE20
:100F200073E080E090E0E6CF4EDA8091B2009091DD
:100F3000B300089711F4E3DBC4CF8BB78F7D8BBF71
:100F400088E090E09093B3008093B20061E080E08D
:100F5000B1DA60E081E0AEDA8EE08093FD00439884
:100F6000469A4798419A409A87B32091F800922F69
:100F70009095982397BB88B3822B88BB97B3209119
:100F8000F900922B97BB88B3822B88BB449A439A73
:100F90009BD98FE790E09EDB8FE890E09BDB91CFC1
:100FA00086E090E09093B3008093B2008E2D69E2CA
:100FB00054D68952BE016F5F7F4F90E0CADBBE01FD
:100FC0006F5F7F4F86E291E064D786E291E0909375
:100FD0001801809317011092090110921B011092C1
:100FE0001A011092190181E080930701C5CC80910C
:100FF000B000882391F08091A2009091A3002091ED
:10100000AB002223B1F022E030E03093B300209314
:10101000B20063E070E0BED612C08091B1008823B8
:10102000B1F18091A2009091A3002091AB00222306
:1010300051F321E030E03093B3002093B200BC01C3
:1010400090E080E048E452E0EDD81092A5001092C4
:10105000A4001092A7001092A600E4DA81E0CA5A18
:10106000DF4F0FB6F894DEBF0FBECDBFDF91CF913B
:101070001F910F91FF90EF90DF90CF90BF90AF90B6
:101080009F908F907F906F905F904F900895F8D9C8
:10109000E5CF8091A9009091AA00009709F5809171
:1010A000AB00882369F08091B000882361F081E073
:1010B00090E09093A5008093A40082E090E048C067
:1010C0008091B100F2CF8091B1008111C7CF8091A2
:1010D000B0008111C3CF1092A7001092A600BECF1E
:1010E000019709F0BBCF8091AB008823C1F08091BC
:1010F000B0008111DCCF8091B1008111AFCF809120
:10110000B0008111ABCF8091A6009091A70002970B
:1011100009F0A4CF1092A5001092A4009FCF809157
:10112000B100E7CF8091A9009091AA000097C1F487
:101130008091AB00882389F08091B100882319F257
:1011400082E090E09093A5008093A40081E090E07D
:101150009093A7008093A60081CF8091B000EECF3E
:10116000019709F07BCF8091AB008823A1F080919B
:10117000B1008111E5CF8091B10081116FCF8091D5
:10118000B00081116BCF8091A6009091A7000197CC
:1011900009F064CFBFCF8091B000EBCF14D980911C
:1011A000A4009091A5008230910569F48091AB0074
:1011B000882331F08091B100882309F44FCFC6CF46
:1011C0008091B000F9CF019709F048CF8091AB0032
:1011D000882331F08091B000882309F43FCF6DCF90
:1011E0008091B100F9CFEFD880910701811105C03E
:1011F0007AD71092B3001092B2008091A800882391
:1012000009F42CCF80910201882331F068E572E067
:1012100080E090E08BD922CF66D720CFD4D81ECFE4
:10122000D2D88CEE90E092D8892B09F417CF8E019A
:101230000F5F1F4F6801F12CE12CE8D76093F40099
:101240007093F5008093F6009093F7008CEE90E099
:101250004BD897FF02C1DAD78090F4009090F50048
:10126000A090F600B090F700681979098A099B09E7
:101270008090F0009090F100A090F200B090F30008
:10128000681579058A059B0508F3F801EE0DFF1D29
:1012900010828A818F3309F057C00981002E000C1B
:1012A000110BC801DDD5813391050CF4D7CE843301
:1012B0009105DCF18735910509F0D0CE10916100E0
:1012C0007091620080916300909164002F961FAE30
:1012D0002F977E01FEE4EF0EF11C2AE0822E912C66
:1012E000A12CB12C612FA501940192D5822F6AE027
:1012F000B4D4181B1A3034F5105DD7011E937D014C
:10130000122F732FCA01232B242B252B59F7FD01F4
:1013100001900020E9F73197AF014A1B5B0BBD013B
:101320008CEE90E020D8D0D799CEC801C19769E261
:1013300070E030D5BE01625D7F4F0BDACE018E9634
:10134000C9D98CCE195CD9CF8A3309F087CEF98000
:101350008F2D0F2C000C990B83D58E34910509F439
:1013600060C0DCF58134910509F460C05CF5C1977B
:10137000039708F073CE48E250E0BE016D5F7F4FE7
:10138000C80176D5C801BBD38FEC8F0D90E069E220
:1013900070E000D54C01F12CE12CF801B1908F01E7
:1013A0006401CE0CDF1CC60142D4B81619F06B2DB7
:1013B000C60145D4FFEFEF1AFF0A2DE2E216F10451
:1013C00061F74CCE8234910509F048CE81E090E07F
:1013D0009093AA008093A9002DC08235910599F0C1
:1013E0004CF48F34910509F039CE1092A8001FA655
:1013F0001EA62DC08335910519F18835910509F098
:101400002DCE7DD92BCE81E08093AB0081E090E0A2
:101410009FA78EA7BE01625D7F4F8BE790E0BED98C
:101420001DCE1092AB001FA61EA6F4CF1092AA00EC
:101430001092A90069EA70E080E890E0AFD90ECE82
:1014400081E08093A80081E090E09FA78EA7BE0175
:10145000625D7F4F81E890E0E2CF8A30910509F428
:1014600014CFD6018D936D01BFEFEB1AFB0AECE2AE
:10147000EE16F10409F0E1CE08CF1F920F920FB6DD
:101480000F9211242F933F938F939F93AF93BF930A
:101490008091B5009091B600A091B700B091B800CE
:1014A0003091B4002CE0230F2D3768F12FE8230F83
:1014B0000596A11DB11D2093B4008093B5009093B3
:1014C000B600A093B700B093B8008091B900909196
:1014D000BA00A091BB00B091BC000196A11DB11D46
:1014E0008093B9009093BA00A093BB00B093BC0066
:1014F000BF91AF919F918F913F912F910F900FBE10
:101500000F901F9018950496A11DB11DD4CF1F9266
:101510000F920FB60F9211242F933F934F935F9327
:101520006F937F938F939F93AF93BF93EF93FF93AB
:101530008091BD009091BE00A091BF00B091C0000D
:10154000892B8A2B8B2B61F18091BD009091BE007D
:10155000A091BF00B091C000181619061A061B060C
:101560008CF58091BD009091BE00A091BF00B0911C
:10157000C0000197A109B1098093BD009093BE00FE
:10158000A093BF00B093C0008091BD009091BE00B9
:10159000A091BF00B091C000892B8A2B8B2B91F4B6
:1015A000A2D5FF91EF91BF91AF919F918F917F91C4
:1015B0006F915F914F913F912F910F900FBE0F90C0
:1015C0001F9018959091C100E091C200F091C30066
:1015D000808189278083E5CF1F920F920FB60F92EB
:1015E00011242F933F934F935F937F938F939F93F8
:1015F000AF93BF93EF93FF934091F80020E038E062
:1016000035D034D033D032D031D0889476B37423EF
:1016100009F0089427953A9509F0F3CF27D026D002
:10162000E091FB00F091FC0080A191A101968F71E7
:10163000992742A153A18417950739F0A0A1B1A120
:10164000AE0FBF1F2C9391A380A3449AFF91EF91FB
:10165000BF91AF919F918F917F915F914F913F91FA
:101660002F910F900FBE0F901F9018958091FD0045
:10167000982F9A95F1F708951F920F920FB60F9237
:1016800011240F900FBE0F901F9018951F920F926C
:101690000FB60F9211240F900FBE0F901F90189548
:1016A0001F93CF93DF93ECEEF0E01382128288EE6B
:1016B00093E0A0E0B0E084839583A683B78389E6B6
:1016C00090E09183808388EC90E0908B878782E024
:1016D000848711E015878EEF8687118A80E2EBEA16
:1016E000F1E0DF01982F1D929A95E9F7EBE8F1E020
:1016F000DF011D928A95E9F76091610070916200A7
:10170000809163009091640004D29B01AC01CEEF04
:10171000D0E01C821D8383E08E838F8318861A8617
:101720001B861C8A1A8E198E1B8E19862883398374
:101730004A835B8360E070E086E994E497D2FED24E
:10174000688B798B8A8B9B8B61E083E0B3D61D8E8F
:101750001C8E1F8E1E8EDF91CF911F910895D0E8B1
:10176000D6BDC1E0C6BD83E08ABD83BF789489B78A
:10177000826089BF80E48CBD8FEF8DBD86EC80BF19
:1017800085E886B960E083E02CD660E084E029D665
:1017900061E083E08FD661E084E08CD662E080E097
:1017A00089D662E081E086D6F894D6BDC6BD04B67F
:1017B00003FC01D685B7806285BF85B7877E8061CF
:1017C00085BF8BB780628BBF85B3836085BB789400
:1017D0006BEA70E08BE790E0B3D780E890E027D227
:1017E0008093A90081E890E022D28093AA0068EA61
:1017F00070E081E890E0A4D7B9D42091AB0130919A
:10180000AC01232B09F45BC12091BB013091BC01D9
:10181000232B09F471C164E670E080E090E0CCD441
:1018200011E001E4CBEAD1E088819981892BB1F103
:101830009DD46B017C018C819D81AE81BF81B701FC
:10184000A601481B590B6A0B7B0B88859985AA85D5
:10185000BB85481759076A077B0700F1E881F981C2
:101860008A819B810995882351F081E04C855D85B3
:101870006E857F85452B462B472B09F480E0482F4A
:1018800050E070E060E04C875D876E877F8788233B
:1018900009F49AC0CC82DD82EE82FF82609621E05C
:1018A000CB3CD20708F262D4CBEAD1E0888199819F
:1018B000892B09F09AC0609681E0CB3CD807B0F341
:1018C00055D4CBE8D1E088819981892BB1F19ED4A0
:1018D0006B017C018C819D81AE81BF81B701A60126
:1018E000481B590B6A0B7B0B88859985AA85BB859C
:1018F000481759076A077B0700F1E881F9818A8157
:101900009B810995882351F081E04C855D856E852A
:101910007F85452B462B472B09F480E0482F50E06C
:1019200070E060E04C875D876E877F87882309F4CD
:1019300070C0CC82DD82EE82FF82609621E0CB3ADD
:10194000D20708F263D4CBE8D1E088819981892B52
:1019500009F070C0609681E0CB3AD807B0F356D456
:10196000B09B7CC01092B100B19B8CC01092B000B3
:101970004DD4C090AC00D090AD00E090AE00F0909F
:10198000AF00C616D706E806F90608F04BCF80B5BB
:101990008F6080BD3798F89481B5886181BD01BDA5
:1019A000789485B7806285BF889585B78F7D85BF20
:1019B00002D580B5807F80BD80E8CED38C3F934038
:1019C00008F074C000D52ECF198218821B821A82AB
:1019D0001C821D821E821F82188619861A861B860B
:1019E0001C861D861E861F8659CFC0D3CC80DD8005
:1019F000EE80FF806C197D098E099F09C884D98407
:101A0000EA84FB846C157D058E059F0508F453CF91
:101A100057CF198218821B821A821C821D821E8255
:101A20001F82188619861A861B861C861D861E86AE
:101A30001F8683CFEBD3CC80DD80EE80FF806C19D6
:101A40007D098E099F09C884D984EA84FB846C15BA
:101A50007D058E059F0508F47DCF81CFB4D480919C
:101A6000B2009091B3008630910511F0099739F4D6
:101A700054D606D51092B3001092B20075CF1093D1
:101A8000B10072CFA0D48091B2009091B3008630A3
:101A9000910511F0099739F440D6F2D41092B300B1
:101AA0001092B20065CF1093B00062CF1092AC00DC
:101AB0001092AD001092AE001092AF00B3CEEBEAE0
:101AC000F1E02EEE33E031832083138212826483AF
:101AD00075838683978388EE93E0A0E0B0E08087EB
:101AE0009187A287B38781E090E0A0E0B0E084878F
:101AF0009587A687B7878FCEEBEBF1E0E2CFDC01CD
:101B00006C9161566A3108F0605E6F5B6D93C1F74E
:101B10000895E89409C097FB3EF4909580957095E0
:101B200061957F4F8F4F9F4F9923A9F0F92F96E929
:101B3000BB279395F695879577956795B795F1119E
:101B4000F8CFFAF4BB0F11F460FF1BC06F5F7F4F3B
:101B50008F4F9F4F16C0882311F096E911C077234D
:101B600021F09EE8872F762F05C0662371F096E856
:101B7000862F70E060E02AF09A95660F771F881F25
:101B8000DAF7880F9695879597F9089597F99F67E3
:101B900080E870E060E008959FEF80EC08950024F5
:101BA0000A941616170618060906089500240A94C2
:101BB00012161306140605060895092E0394000C48
:101BC00011F4882352F0BB0F40F4BF2B11F460FFD7
:101BD00004C06F5F7F4F8F4F9F4F089557FD905800
:101BE000440F551F59F05F3F71F04795880F97FBE1
:101BF000991F61F09F3F79F087950895121613069B
:101C00001406551FF2CF4695F1DF08C016161706C9
:101C10001806991FF1CF86957105610508940895FE
:101C2000E894BB2766277727CB0197F90895E199B8
:101C3000FECF9FBB8EBBE09A99278DB30895262FC8
:101C4000E199FECF1CBA9FBB8EBB2DBB0FB6F8949B
:101C5000E29AE19A0FBE01960895002480FD060ED7
:101C6000660F11F08695D1F7802D08950CD0A5CF81
:101C70009DDF40F094DF30F021F45F3F19F086CF14
:101C80005111CFCF89CFAADF98F39923C9F35523F8
:101C9000B1F3951B550BBB27AA276217730784075F
:101CA00038F09F5F5F4F220F331F441FAA1FA9F315
:101CB00033D00E2E3AF0E0E830D091505040E69507
:101CC000001CCAF729D0FE2F27D0660F771F881F68
:101CD000BB1F261737074807AB07B0E809F0BB0B57
:101CE000802DBF01FF2793585F4F2AF09E3F51057B
:101CF00068F04CCF96CF5F3FECF3983EDCF38695CF
:101D000077956795B795F7959F5FC9F7880F911DF0
:101D10009695879597F90895E1E0660F771F881FDC
:101D2000BB1F621773078407BA0720F0621B730B8F
:101D3000840BBA0BEE1F88F7E095089557DF88F003
:101D40009F5790F0B92F9927B751A0F0D1F0660FA7
:101D5000771F881F991F1AF0BA95C9F712C0B130C2
:101D600081F05EDFB1E008955BCF672F782F882781
:101D7000B85F39F0B93FCCF3869577956795B39501
:101D8000D9F73EF490958095709561957F4F8F4F70
:101D90009F4F08950024552704C0080E591F880F2F
:101DA000991F009729F076956795B8F37105B9F7F3
:101DB000802D952F0895EE27FF27AA27BB2708C05F
:101DC000A20FB31FE41FF51F220F331F441F551F1F
:101DD000969587957795679598F37040A9F7009742
:101DE00099F7BD01CF010895AA1BBB1B51E107C0A4
:101DF000AA1FBB1FA617B70710F0A61BB70B881F9B
:101E0000991F5A95A9F780959095BC01CD01089529
:101E1000A1E21A2EAA1BBB1BFD010DC0AA1FBB1FEE
:101E2000EE1FFF1FA217B307E407F50720F0A21B60
:101E3000B30BE40BF50B661F771F881F991F1A94CD
:101E400069F760957095809590959B01AC01BD01F7
:101E5000CF010895EE0FFF1F0590F491E02D099436
:101E60009111089581568A5108F480528558089539
:101E70006817790768F4FB01DC01E40FF51FA40F74
:101E8000B51F02C002900E9241505040D8F70895FD
:101E900007C0FB01DC0101900D920020E1F70895DD
:101EA000FB01DC0102C001900D9241505040D8F777
:061EB0000895F894FFCF35
:101EB600FF14000000000000004801B301A60174F1
:101EC60001910147014578697420554152540045F6
:101ED600746865724B65796572204D696E6900316B
:0C1EE60038205365702032303234000088
:00000001FF
