:100000004CC070C030CB7ACA6DC02ECA6BC0DBCA80
:1000100069C068C067C066C030CB64C063C0FF8081
:100020008080808080808080808080E08094FC7CE4
:100030003C1C0C0484C4E4F48080808C803280609A
:1000400088A8904028D0082078B048E0A0F068D870
:100050005010C030187098B8C88080808080806050
:1000600088A8904028D0082078B048E0A0F068D850
:100070005010C030187098B8C80000000037000158
:1000800002040810200000000038000202020202F0
:100090000201030000040000470B11241FBECFE53E
:1000A000D2E0DEBFCDBF21E0A6EAB0E001C01D92E4
:1000B000A53CB207E1F710E0A0E6B0E0E6EBFEE118
:1000C00002C005900D92A63AB107D9F710E0CDE431
:1000D000D0E003C02197FE01BDDECC34D107D1F7BB
:1000E00035DBE7CE8DCF809160008F3F29F189B756
:1000F0008B7989BF10BE8CB581788CBD1FBC1EBCAE
:100100001BBC1DBC89B78B7989BF84E688BF80E49E
:100110008CBD8FEF8DBD86EC80BFE091CC00F0915F
:10012000CD00309731F08091CB009081809589236C
:1001300080838FEF809360000895449A4398469897
:10014000479AE6EFF0E0118A0784F089E02D82A15A
:1001500093A191A380A308958F7787B987B187B9B9
:10016000369A3699FECF84B195B108953FB7F89489
:100170008091C3009091C400A091C500B091C600C9
:1001800022B708B601FE05C02F3F19F00196A11D48
:10019000B11D3FBFBA2FA92F982F8827BC01CD01D1
:1001A000620F711D811D911D44E0660F771F881F2E
:1001B000991F4A95D1F70895CF92DF92EF92FF925F
:1001C000CF93DF93D3DFEB0188ECC82ED12CE12C49
:1001D000F12CCCDF6C1B7D0B683E7340A0F0C1148A
:1001E000D104E104F10439F4DF91CF91FF90EF9055
:1001F000DF90CF90089581E0C81AD108E108F10896
:10020000C851DC4FE6CFC114D104E104F10409F771
:10021000EBCF2FB7F8946091BF007091C000809130
:10022000C1009091C2002FBF0895CF92DF92EF924C
:10023000FF92CF93DF936B017C01EA01EADF20910B
:10024000950130919601232B59F02091A501309111
:10025000A601F0E0E0E0232BA9F4E5EAF1E002C01A
:10026000E5E9F1E0D183C083138212826483758350
:1002700086839783C086D186E286F38614861586A8
:1002800016861786CF01DF91CF91FF90EF90DF9018
:10029000CF90089508952FB7F894FC0145855685B1
:1002A0003AE06095089420F478B3752378BB04C0D5
:1002B00078B3742B78BB0000D0D9CFD9CED9CDD9A3
:1002C00066953A9581F72FBF81E090E00895CF932E
:1002D000DF936DE086EF90E0DEDFEC016AE086EF11
:1002E00090E0D9DF8C0F9D1FDF91CF910895DC0145
:1002F0001F96ED91FC9120A131A182A193A1281715
:10030000390779F0A2A1B3A1AE0FBF1F8C9122A132
:1003100033A12F5F3F4F2F71332733A322A390E0E8
:1003200008958FEF9FEF0895DC011F96ED91FC91EA
:1003300020A131A182A193A12817390739F082A108
:1003400093A1E80FF91F808190E008958FEF9FEF50
:100350000895DC011F96ED91FC9180A191A122A14D
:1003600033A1821B930B8F7199270895CF92DF924F
:10037000EF92FF920F931F93CF93DF936C01EB01EA
:100380007B01E40EF51E10E000E0CE15DF0561F004
:100390006991D601ED91FC910190F081E02DC601AB
:1003A0000995080F191FF1CFC801DF91CF911F9157
:1003B0000F91FF90EF90DF90CF900895F89414BEC6
:1003C00081B5886181BD11BC7894089522DF6851A0
:1003D0007C4F8F4F9F4F6093B6007093B700809310
:1003E000B8009093B900089587FF09C08F7771F125
:1003F000813071F1823071F1833071F18FEF90E0D3
:10040000FC01EF56FF4F3491FC01E158FF4F24915E
:10041000FC01E557FF4FE491EE23B9F0332329F0B7
:100420003130E1F48AB58F778ABDF0E0EE0FFF1F1F
:10043000EB57FF4FA591B4918FB7611120C0F8948D
:10044000EC9120952E232C938FBF089585E0D7CF74
:1004500082E0D5CF84E0D3CF83E0D1CF323019F41E
:100460008AB58F7DE1CF333021F480B78F7D80BF97
:10047000DCCF3430D1F68CB58F7D8CBDD6CFF894DF
:10048000EC912E2BE0CF60E083E0AEDF8091B200F4
:10049000811129CE0895F7DF85E090E09093BD00AB
:1004A0008093BC006091AC007091AD0090E080E062
:1004B00042E253E0BADE80E00895CF93DF9390E00C
:1004C000FC01E158FF4F249185579F4FFC01849117
:1004D0008823C9F090E0880F991FFC01E758FF4F6F
:1004E000A591B491FC01EB57FF4FC591D4916111D7
:1004F0000DC09FB7F8948C91209582238C938881AE
:10050000282328839FBFDF91CF910895623051F453
:100510009FB7F8943C91822F809583238C93E88138
:100520002E2BEFCF8FB7F894EC912E2B2C938FBFFF
:10053000EACFCF92DF92EF92FF9240916000443079
:1005400071F4C090CE00D090CF00E090D000F09039
:10055000D100C616D706E806F90609F461C06B019A
:100560007C01C092CE00D092CF00E092D000F092F9
:10057000D1004F3F11F510BE8CB581788CBD1FBCEA
:100580001EBC1BBC1DBC89B78B7989BF88B784662C
:1005900088BF80E880BF1092CD001092CC001092EE
:1005A000CB008CB58F7D8CBD8CB580618CBD61E03E
:1005B00084E083DF84E08093600080916000843079
:1005C00079F580B7807F80BF1FBC60E874E88EE15A
:1005D00090E0A70196011CDC81E08F5F569547955E
:1005E000379527952F3F31054105510519F010F03A
:1005F0008F3099F79FEF920F9DBD2150310941092E
:1006000051092EBD4FEF5FEFBA014093C7005093E1
:10061000C8006093C9007093CA0090B7892B80BF4F
:10062000FF90EF90DF90CF90089561E083E0DCDEF3
:100630008091B200882329F068E572E080E090E0C4
:1006400078CF08958091B0009091B10081309105EC
:10065000D1F41092AF001092AE0081E090E0909340
:10066000BD008093BC001092B1001092B000DDDF9D
:100670006091AC007091AD0090E080E04BE452E0FE
:10068000D4DD80E0089582309105C1F41092AF006E
:100690001092AE0082E090E09093BD008093BC0089
:1006A0001092B1001092B000C0DF8091AC00909128
:1006B000AD0063E070E06EDBBC01DECF83309105FE
:1006C00041F2049719F3DFDE1092BD001092BC00D6
:1006D0001092B1001092B000D4CFFC010190002024
:1006E000E9F73197AF01481B590BBC0186EF90E049
:1006F0003DCECF93DF93F1DFEC01E9DD8C0F9D1F41
:10070000DF91CF9108951092BD001092BC0085E753
:1007100090E0EFDF12DD62E080E0CFDE62E081E0BA
:10072000CCCEA0E3B1E085E6FD0111928A95E9F710
:10073000E8E0F1E0B28FA18F1386158E148E138E30
:10074000118660E0878150CECF93DF93EB016FDAA3
:100750008883CE01DF91CF910895CF92DF92EF92FF
:10076000FF920F931F93CF93DF93EB017B0129E25D
:10077000E20EF11C8B016C01C61AD70AC601800F6C
:10078000911F55DAF80181938F01EE15FF05B1F73E
:10079000CE01DF91CF911F910F91FF90EF90DF90ED
:1007A000CF900895FF920F931F93CF93DF93EC01A7
:1007B0008B01FB01F0803BDAF81619F06F2DCE01AA
:1007C0003EDAF801F1802196CE0131DAF81619F0FF
:1007D0006F2DCE0134DAC801DF91CF911F910F91B7
:1007E000FF9008954F925F926F927F928F929F92A7
:1007F000AF92BF92CF92DF92EF92FF920F931F932F
:10080000CF93DF93CDB7DEB7C655D1090FB6F894B5
:10081000DEBF0FBECDBF8091BC009091BD0006979A
:1008200021F5F8948091280190912901A0912A0145
:10083000B0912B010196A11DB11D809328019093C9
:100840002901A0932A01B0932B017894809124016F
:1008500090912501833091050CF097C0813091056E
:100860000CF01EC2892B09F4C3C081E875DC63E279
:1008700070E090DA6FEF73E0B7DA6B5F7F4F6B0178
:10088000F12CE12CC0926100D0926200E0926300F2
:10089000F092640060EB74E080E090E0A7019601C4
:1008A000B7DA3093AD002093AC00C701B60131D95F
:1008B0009B01AC01209308013093090140930A0188
:1008C00050930B0160E070E086E994E4CFD936DA0A
:1008D000609318017093190180931A0190931B0182
:1008E00080E83ADCE090AA00F090AB009C012F5F1A
:1008F00031402F34310508F495C2245B31092F347F
:10090000310508F4B6C2815293408F34910508F442
:10091000B3C2E114F10409F497C20091BC00109134
:10092000BD0054DD76DC8090A6009090A700A090DA
:10093000A800B090A90024013501EAE04E0E511C38
:10094000611C711C6415750586059705C8F061DC8E
:10095000F8EE8F0EF3E09F1EA11CB11C68157905FF
:100960008A059B0568F40630110521F00930110550
:1009700009F019C3D6DE87DD1092BD001092BC00CD
:100980001092AB001092AA005FC2883091050CF45F
:10099000DFC1089709F069CF10920C0180910E0118
:1009A00090911001992309F475C161E01DDD61E0AA
:1009B00080910F0119DD409128015091290160912A
:1009C0002A0170912B0180912C0190912D01A09111
:1009D0002E01B0912F0184179507A607B70708F0DD
:1009E00044CF1092120110922501109224013DCFA4
:1009F00010920C0180910D01882309F436CF80906C
:100A0000280190902901A0902A01B0902B0100911B
:100A10001C01602F0F3108F06EE170E090E080E083
:100A200020E63AEE40E050E0C6D9860E971EA81E9A
:100A3000B91E80921D0190921E01A0921F01B092DA
:100A40002001E0902101F090220160911801709145
:100A5000190180911A0190911B0120E3E21621E017
:100A6000F206D1F520912301211136C0E091300129
:100A70000E2E000CFF0BE250F040E491E0932301B6
:100A800020911201222341F128E030E0309325012A
:100A900020932401C0902801D0902901E0902A01E0
:100AA000F0902B0127E030E040E050E084D9C60E02
:100AB000D71EE81EF91EC0922C01D0922D01E092A3
:100AC0002E01F0922F01C0922C01D0922D01E092C4
:100AD0002E01F0922F01C9CE10912301112309F4A8
:100AE00094C0103819F11F3F09F05BC0C090280175
:100AF000D0902901E0902A01F0902B0127E030E00E
:100B000040E050E058D9C60ED71EE81EF91EC0922C
:100B10002C01D0922D01E0922E01F0922F0185E060
:100B200090E090932501809324019FCE809028012E
:100B300090902901A0902A01B0902B0123E030E091
:100B400040E050E038D9860E971EA81EB91E80924C
:100B50002C0190922D01A0922E01B0922F0184E0E1
:100B600090E09093250180932401C7010196909312
:100B7000220180932101809113018F5F80931301E3
:100B8000D7011196EC91E11103C0109223016DCEB3
:100B90000E2E000CFF0BE250F040E491E093230195
:100BA00064CEC0902801D0902901E0902A01F090F5
:100BB0002B0117FF1BC023E030E040E050E0FBD8E2
:100BC000C60ED71EE81EF91EC0922C01D0922D0130
:100BD000E0922E01F0922F0182E090E090932501A7
:100BE00080932401110F109323013FCEC60ED71E10
:100BF000E81EF91EC0922C01D0922D01E0922E0128
:100C0000F0922F0181E090E0E9CF27E030E040E072
:100C100050E0D1D8AB01BC0180912801909129010D
:100C2000A0912A01B0912B01840F951FA61FB71F19
:100C300001110BC080932C0190932D01A0932E01E4
:100C4000B0932F0187E090E06CCF88169906AA0632
:100C5000BB06B8F48091280190912901A0912A0146
:100C6000B0912B01840F951FA61FB71F80932C01F5
:100C700090932D01A0932E01B0932F0186E090E078
:100C800050CF80922C0190922D01A0922E01B09213
:100C90002F01F4CF882311F060E0A6DB60E088CE5E
:100CA00081E080930C0180910E01909110019923B5
:100CB00019F061E099DB02C08111FBCF61E0809106
:100CC0000F0192DB409128015091290160912A0186
:100CD00070912B0180912C0190912D01A0912E01FA
:100CE000B0912F0184179507A607B70708F0BDCD6F
:100CF00010920C018091100161E0811107C0809178
:100D00000E01882311F060E06FDB60E080910F013D
:100D10006BDB8091280190912901A0912A01B0916B
:100D20002B01409118015091190160911A017091A5
:100D30001B01840F951FA61FB71F80932C01909352
:100D40002D01A0932E01B0932F0183E090E0E9CE16
:100D500010920C018091100161E0811107C0809117
:100D60000E01882311F060E03FDB60E080910F010D
:100D70003BDB409128015091290160912A0170913B
:100D80002B0180912C0190912D01A0912E01B09109
:100D90002F0184179507A607B70708F066CD809145
:100DA00024019091250185309105F1F4E091210114
:100DB000F0912201CF0101969093220180932101AD
:100DC000809113018F5F80931301E181E11103C0D2
:100DD0001092230108CE0E2E000CFF0BE250F040C3
:100DE000E491E0932301FFCD079709F0FCCDE0E308
:100DF000F1E085E6DF011D928A95E9F71092110175
:100E00001092130180911001882329F060E08091F5
:100E10000F01EADAE8CD80910E018823B9F360E092
:100E2000E3DAF4CF01E010E0E114F10441F51093AE
:100E3000AB000093AA00EDD96093A6007093A700C1
:100E40008093A8009093A900E091BC00F091BD00B0
:100E5000EA30F10508F005C1E15DF84F0994CAC018
:100E600019C161C1FEC0FDC09AC1BEC1D8C1D9C1FE
:100E7000D6C102E010E0D8CF03E010E0D5CFC9D949
:100E8000AB01BC018091A6009091A700A091A800A1
:100E9000B091A90088519C4FAF4FBF4F8417950761
:100EA000A607B70788F6B7E0EB16F10469F202303F
:100EB000110591F003301105B9F188DA89E090E06D
:100EC0009093BD008093BC00B0DB87E090E09093EE
:100ED000AB008093AA00B8CF8091B200882391F034
:100EE0001092B2001A821982BE016F5F7F4F81E8B3
:100EF00090E058DC60E971E080E090E01ADB5CD9BA
:100F0000F2D8E3CF81E08093B20081E090E09A8351
:100F10008983BE016F5F7F4F81E890E043DC68EE1C
:100F200073E080E090E0EACF51DA8091BC009091CC
:100F3000BD00089711F4E7DBC8CF8BB78F7D8BBF5F
:100F400088E090E09093BD008093BC0061E080E079
:100F5000B4DA60E081E0B1DA8EE080930701439873
:100F6000469A4798419A409A87B320910201922F5E
:100F70009095982397BB88B3822B88BB97B3209119
:100F80000301922B97BB88B3822B88BB449A439A68
:100F90009ED98FE790E0ADDB8FE890E09EDB89E99A
:100FA00090E0A7DB92CF86E090E09093BD00809325
:100FB000BC008E2D69E251D68952BE016F5F7F4F12
:100FC00090E0CBDBBE016F5F7F4F80E391E061D7A4
:100FD00080E391E09093220180932101109213010C
:100FE00010922501109224011092230181E0809338
:100FF0001101C6CC8091BA00882391F08091AC0099
:101000009091AD002091B5002223B1F022E030E0B4
:101010003093BD002093BC0063E070E0BBD612C0EB
:101020008091BB008823E9F08091AC009091AD00E5
:101030002091B500222351F321E030E03093BD0030
:101040002093BC00BC0190E080E04BE452E0EDD87E
:101050001092AF001092AE001092B1001092B0004A
:10106000E4DA81E0CA5ADF4F0FB6F894DEBF0FBE54
:10107000CDBFDF91CF911F910F91FF90EF90DF9047
:10108000CF90BF90AF909F908F907F906F905F9028
:101090004F9008958091B3009091B400009709F5A6
:1010A0008091B500882369F08091BA00882361F0AF
:1010B00081E090E09093AF008093AE0082E090E0FA
:1010C00048C08091BB00F2CF8091BB008111C9CF95
:1010D0008091BA008111C5CF1092B1001092B0007A
:1010E000C0CF019709F0BDCF8091B5008823C1F032
:1010F0008091BA008111DCCF8091BB008111B1CF0A
:101100008091BA008111ADCF8091B0009091B10073
:10111000029709F0A6CF1092AF001092AE00A1CFB7
:101120008091BB00E7CF8091B3009091B40000970D
:10113000C1F48091B500882389F08091BB00882399
:1011400019F282E090E09093AF008093AE0081E0CE
:1011500090E09093B1008093B00083CF8091BA006B
:10116000EECF019709F07DCF8091B5008823A1F0E3
:101170008091BB008111E5CF8091BB00811171CFBF
:101180008091BA0081116DCF8091B0009091B10033
:10119000019709F066CFBFCF8091BA00EBCF16D987
:1011A0008091AE009091AF008230910569F48091FA
:1011B000B500882331F08091BB00882309F451CF1A
:1011C000C6CF8091BA00F9CF019709F04ACF80913C
:1011D000B500882331F08091BA00882309F441CF0B
:1011E0006DCF8091BB00F9CFF1D8809111018111B1
:1011F00005C079D71092BD001092BC008091B2005A
:10120000882309F42ECF80910C01882331F068E502
:1012100072E080E090E08DD924CF65D722CFD6D878
:1012200020CFD4D886EF90E094D8892B09F419CF39
:101230008E010F5F1F4F6801F12CE12CEAD76093FC
:10124000FE007093FF00809300019093010186EFF0
:1012500090E04DD897FFF8C0DCD78090FE009090CA
:10126000FF00A0900001B0900101681979098A0976
:101270009B098090FA009090FB00A090FC00B09039
:10128000FD00681579058A059B0508F3F801EE0D48
:10129000FF1D10828A818F3309F04DC00981002E15
:1012A000000C110BC801DCD5813391050CF4D9CEAB
:1012B000843391058CF18735910509F0D2CE1091D8
:1012C00061007091620080916300909164002F969C
:1012D0001FAE2F977E01FEE4EF0EF11C2AE0822E56
:1012E000912CA12CB12C612FA501940191D5822FB5
:1012F0006AE0B3D4181B1A30E4F4105DD7011E93D2
:101300007D01122F732FCA01232B242B252B59F774
:10131000CD01E3D9DCD7A5CEC801C19769E270E061
:1013200039D5BE01625D7F4F18DACE018E96E1D9C4
:1013300098CE195CE3CF8A3309F093CEF9808F2DD4
:101340000F2C000C990B8CD58E34910509F460C0DC
:10135000DCF58134910509F460C05CF5C197039711
:1013600008F07FCE48E250E0BE016D5F7F4FC801BC
:101370007FD5C801C4D38FEC8F0D90E069E270E097
:1013800009D54C01F12CE12CF801B1908F016401D9
:10139000CE0CDF1CC6014BD4B81619F06B2DC6015C
:1013A0004ED4FFEFEF1AFF0A2DE2E216F10461F7C7
:1013B00058CE8234910509F054CE81E090E09093AC
:1013C000B4008093B3002DC08235910599F04CF4A0
:1013D0008F34910509F045CE1092B2001FA61EA6CB
:1013E0002DC08335910519F18835910509F039CE65
:1013F0008AD937CE81E08093B50081E090E09FA745
:101400008EA7BE01625D7F4F8BE790E0CBD929CEDE
:101410001092B5001FA61EA6F4CF1092B400109231
:10142000B30063EB70E080E890E0BCD91ACE81E0B5
:101430008093B20081E090E09FA78EA7BE01625D1D
:101440007F4F81E890E0E2CF8A30910509F41ECF0A
:10145000D6018D936D01BFEFEB1AFB0AECE2EE169D
:10146000F10409F0EBCE12CF1F920F920FB60F923C
:1014700011242F933F938F939F93AF93BF938091AA
:10148000BF009091C000A091C100B091C200309106
:10149000BE002CE0230F2D3768F12FE8230F0596AF
:1014A000A11DB11D2093BE008093BF009093C0008A
:1014B000A093C100B093C2008091C3009091C4007A
:1014C000A091C500B091C6000196A11DB11D8093E9
:1014D000C3009093C400A093C500B093C600BF9111
:1014E000AF919F918F913F912F910F900FBE0F90D1
:1014F0001F9018950496A11DB11DD4CF1F920F9275
:101500000FB60F9211242F933F934F935F936F93D6
:101510007F938F939F93AF93BF93EF93FF938091AC
:10152000C7009091C800A091C900B091CA00892B52
:101530008A2B8B2B61F18091C7009091C800A091FC
:10154000C900B091CA00181619061A061B068CF5B8
:101550008091C7009091C800A091C900B091CA00C5
:101560000197A109B1098093C7009093C800A09387
:10157000C900B093CA008091C7009091C800A091A3
:10158000C900B091CA00892B8A2B8B2B91F4ABD563
:10159000FF91EF91BF91AF919F918F917F916F914B
:1015A0005F914F913F912F910F900FBE0F901F9021
:1015B00018959091CB00E091CC00F091CD00808106
:1015C00089278083E5CF1F920F920FB60F921124C7
:1015D0002F933F934F935F937F938F939F93AF93FB
:1015E000BF93EF93FF934091020120E038E035D0A4
:1015F00034D033D032D031D0889476B3742309F00C
:10160000089427953A9509F0F3CF27D026D0E0919A
:101610000501F091060180A191A101968F71992792
:1016200042A153A18417950739F0A0A1B1A1AE0F33
:10163000BF1F2C9391A380A3449AFF91EF91BF9178
:10164000AF919F918F917F915F914F913F912F919A
:101650000F900FBE0F901F90189580910701982F43
:101660009A95F1F708951F920F920FB60F921124D9
:101670000F900FBE0F901F9018951F920F920FB6EC
:101680000F9211240F900FBE0F901F9018951F936B
:10169000CF93DF93E6EFF0E01382128288EE93E0BF
:1016A000A0E0B0E084839583A683B78389E690E0C9
:1016B0009183808382ED90E0908B878782E084879E
:1016C00011E015878EEF8687118A80E1E5EBF1E066
:1016D000DF011D928A95E9F780E2E5E9F1E0DF019B
:1016E0001D928A95E9F76091610070916200809186
:1016F0006300909164000DD29B01AC01C8E0D1E081
:101700001C821D8383E08E838F8318861A861B8636
:101710001C8A1A8E198E1B8E1986288339834A8358
:101720005B8360E070E086E994E4A0D207D3688B25
:10173000798B8A8B9B8B61E083E0BFD61D8E1C8EDC
:101740001F8E1E8EDF91CF911F91089520E826BD38
:1017500091E096BD83E08ABD83BF789489B78260AB
:1017600089BF80E48CBD8FEF8DBD86EC80BF85E89E
:1017700086B9F89426BD96BD04B603FC1FD685B77E
:10178000806285BF85B7877E806185BF8BB78062A9
:101790008BBF85B3836085BB789465EB70E08BE786
:1017A00090E0D2D780E890E042D28093B30081E805
:1017B00090E03DD28093B40062EB70E081E890E06D
:1017C000C3D761E083E079D661E084E076D662E059
:1017D00080E073D662E081E070D660E083E004D6FA
:1017E00060E084E001D6C2D42091B5013091B60109
:1017F000232B51F522EF33E03093B6012093B5014E
:101800001092B8011092B7016093B9017093BA01B8
:101810008093BB019093BC0188EE93E0A0E0B0E020
:101820008093BD019093BE01A093BF01B093C0010E
:1018300081E090E0A0E0B0E08093C1019093C2010C
:10184000A093C301B093C40111E001E48091B501FC
:101850009091B601892B09F457C088D46B017C01A3
:101860008091B9019091BA01A091BB01B091BC01E6
:10187000B701A601481B590B6A0B7B0B8091BD0178
:101880009091BE01A091BF01B091C00148175907C6
:101890006A077B07C8F1E091B501F091B60180912C
:1018A000B7019091B80109958111C3C0482F50E04C
:1018B00070E060E04093C1015093C2016093C301A6
:1018C0007093C4018111ACC01092B6011092B501A1
:1018D0001092B8011092B7011092B9011092BA019A
:1018E0001092BB011092BC011092BD011092BE017A
:1018F0001092BF011092C0011092C1011092C2015A
:101900001092C3011092C40131D48091B50190911D
:10191000B601892B09F02AD429D4C5E9D1E0888100
:101920009981892BB1F175D46B017C018C819D81EA
:10193000AE81BF81B701A601481B590B6A0B7B0B17
:1019400088859985AA85BB85481759076A077B074B
:1019500000F1E881F9818A819B810995882351F002
:1019600081E04C855D856E857F85452B462B472B19
:1019700009F480E0482F50E070E060E04C875D871C
:101980006E877F87882309F464C0CC82DD82EE8273
:10199000FF82609621E0C53BD20708F23AD4C5E940
:1019A000D1E088819981892B09F064C0609681E03B
:1019B000C53BD807B0F32DD4B09B70C01092BB00CC
:1019C000B19B80C01092BA0024D4C090B600D090D1
:1019D000B700E090B800F090B900C616D706E80648
:1019E000F90608F033CF80B58F6080BD3798F89442
:1019F00081B5886181BD01BD789485B7806285BF5E
:101A0000889585B78F7D85BFD9D480B5807F80BD0F
:101A100080E8A2D38C3F934008F068C0D7D416CF9B
:101A2000C092B901D092BA01E092BB01F092BC0120
:101A30006BCF81E04091C1015091C2016091C3011F
:101A40007091C401452B462B472B09F02FCF80E026
:101A50002DCF198218821B821A821C821D821E823F
:101A60001F82188619861A861B861C861D861E866E
:101A70001F868FCFCED3CC80DD80EE80FF806C19A7
:101A80007D098E099F09C884D984EA84FB846C157A
:101A90007D058E059F0508F489CF8DCF97D4809161
:101AA000BC009091BD008630910511F0099739F482
:101AB00038D6E9D41092BD001092BC0081CF1093AB
:101AC000BB007ECF83D48091BC009091BD00863056
:101AD000910511F0099739F424D6D5D41092BD00A0
:101AE0001092BC0071CF1093BA006ECF1092B60066
:101AF0001092B7001092B8001092B900A7CEDC0186
:101B00006C9161566A3108F0605E6F5B6D93C1F74E
:101B10000895E89409C097FB3EF4909580957095E0
:101B200061957F4F8F4F9F4F9923A9F0F92F96E929
:101B3000BB279395F695879577956795B795F1119E
:101B4000F8CFFAF4BB0F11F460FF1BC06F5F7F4F3B
:101B50008F4F9F4F16C0882311F096E911C077234D
:101B600021F09EE8872F762F05C0662371F096E856
:101B7000862F70E060E02AF09A95660F771F881F25
:101B8000DAF7880F9695879597F9089597F99F67E3
:101B900080E870E060E008959FEF80EC08950024F5
:101BA0000A941616170618060906089500240A94C2
:101BB00012161306140605060895092E0394000C48
:101BC00011F4882352F0BB0F40F4BF2B11F460FFD7
:101BD00004C06F5F7F4F8F4F9F4F089557FD905800
:101BE000440F551F59F05F3F71F04795880F97FBE1
:101BF000991F61F09F3F79F087950895121613069B
:101C00001406551FF2CF4695F1DF08C016161706C9
:101C10001806991FF1CF86957105610508940895FE
:101C2000E894BB2766277727CB0197F90895E199B8
:101C3000FECF9FBB8EBBE09A99278DB30895262FC8
:101C4000E199FECF1CBA9FBB8EBB2DBB0FB6F8949B
:101C5000E29AE19A0FBE01960895002480FD060ED7
:101C6000660F11F08695D1F7802D08950CD0A5CF81
:101C70009DDF40F094DF30F021F45F3F19F086CF14
:101C80005111CFCF89CFAADF98F39923C9F35523F8
:101C9000B1F3951B550BBB27AA276217730784075F
:101CA00038F09F5F5F4F220F331F441FAA1FA9F315
:101CB00033D00E2E3AF0E0E830D091505040E69507
:101CC000001CCAF729D0FE2F27D0660F771F881F68
:101CD000BB1F261737074807AB07B0E809F0BB0B57
:101CE000802DBF01FF2793585F4F2AF09E3F51057B
:101CF00068F04CCF96CF5F3FECF3983EDCF38695CF
:101D000077956795B795F7959F5FC9F7880F911DF0
:101D10009695879597F90895E1E0660F771F881FDC
:101D2000BB1F621773078407BA0720F0621B730B8F
:101D3000840BBA0BEE1F88F7E095089557DF88F003
:101D40009F5790F0B92F9927B751A0F0D1F0660FA7
:101D5000771F881F991F1AF0BA95C9F712C0B130C2
:101D600081F05EDFB1E008955BCF672F782F882781
:101D7000B85F39F0B93FCCF3869577956795B39501
:101D8000D9F73EF490958095709561957F4F8F4F70
:101D90009F4F08950024552704C0080E591F880F2F
:101DA000991F009729F076956795B8F37105B9F7F3
:101DB000802D952F0895EE27FF27AA27BB2708C05F
:101DC000A20FB31FE41FF51F220F331F441F551F1F
:101DD000969587957795679598F37040A9F7009742
:101DE00099F7BD01CF010895AA1BBB1B51E107C0A4
:101DF000AA1FBB1FA617B70710F0A61BB70B881F9B
:101E0000991F5A95A9F780959095BC01CD01089529
:101E1000A1E21A2EAA1BBB1BFD010DC0AA1FBB1FEE
:101E2000EE1FFF1FA217B307E407F50720F0A21B60
:101E3000B30BE40BF50B661F771F881F991F1A94CD
:101E400069F760957095809590959B01AC01BD01F7
:101E5000CF010895EE0FFF1F0590F491E02D099436
:101E60009111089581568A5108F480528558089539
:101E70006817790768F4FB01DC01E40FF51FA40F74
:101E8000B51F02C002900E9241505040D8F70895FD
:101E900007C0FB01DC0101900D920020E1F70895DD
:101EA000FB01DC0102C001900D9241505040D8F777
:061EB0000895F894FFCF35
:101EB600FF14000000000000004B01B601A90177E5
:101EC6000194014A014578697420554152540045F0
:101ED600746865724B65796572204D696E69004656
:101EE60069726D7761726520003231204175672015
:061EF6003230323400001E
:00000001FF
