:1000000063C087C037CB81CA84C035CA82C0E2CA08
:1000100080C07FC07EC07DC037CB7BC07AC0FF80F0
:100020008080808080808080808080E08094FC7CE4
:100030003C1C0C0484C4E4F48080808C803280609A
:1000400088A8904028D0082078B048E0A0F068D870
:100050005010C030187098B8C88080808080806050
:1000600088A8904028D0082078B048E0A0F068D850
:100070005010C030187098B8C84578697420554140
:100080005254004669726D7761726520004574684C
:1000900065724B65796572204D696E6900457869B6
:1000A0007420554152540000000000370000000049
:1000B00000380002020202020201020408102001BC
:1000C000030000040000780B11241FBECFE5D2E02E
:1000D000DEBFCDBF21E0A4E8B0E001C01D92AE3983
:1000E000B207E1F710E0A0E6B0E0E2E9FEE102C00D
:1000F00005900D92A438B107D9F710E0C4E6D0E01E
:1001000003C02197FE0194DEC336D107D1F74FDB40
:10011000BECE76CF449A43984698479AEFECF0E0EB
:10012000118A0784F089E02D82A193A191A380A375
:100130000895809160008F3F29F189B78B7989BF3D
:1001400010BE8CB581788CBD1FBC1EBC1BBC1DBCF9
:1001500089B78B7989BF84E688BF80E48CBD8FEF37
:100160008DBD86EC80BFE091A900F091AA00309788
:1001700031F08091A80090818095892380838FEF52
:100180008093600008958F7787B987B187B9369AD1
:100190003699FECF84B195B108953FB7F894809118
:1001A000A4009091A500A091A600B091A70022B74D
:1001B00008B601FE05C02F3F19F00196A11DB11D23
:1001C0003FBFBA2FA92F982F8827BC01CD01620FFE
:1001D000711D811D911D44E0660F771F881F991FB7
:1001E0004A95D1F70895CF92DF92EF92FF92CF9385
:1001F000DF93D3DFEB018AE0C82ED12CE12CF12C68
:10020000CCDF6C1B7D0B683E7340A0F0C114D104A1
:10021000E104F10439F4DF91CF91FF90EF90DF908A
:10022000CF90089581E0C81AD108E108F108C851BB
:10023000DC4FE6CFC114D104E104F10409F7EBCFA0
:100240002FB7F8946091A0007091A1008091A20056
:100250009091A3002FBF0895CF92DF92EF92FF926B
:10026000CF93DF936B017C01EA01EADF20916E01FD
:1002700030916F01232B59F020917E0130917F0145
:10028000F0E0E0E0232BA9F4EEE7F1E002C0EEE6B7
:10029000F1E0D183C08313821282648375838683E5
:1002A0009783C086D186E286F386148615861686E5
:1002B0001786CF01DF91CF91FF90EF90DF90CF9025
:1002C000089508952FB7F894FC01458556853AE0C6
:1002D0006095089420F478B3752378BB04C078B394
:1002E000742B78BB0000C0D9BFD9BED9BDD96695E3
:1002F0003A9581F72FBF81E090E00895CF93DF9387
:100300006DE08FEC90E0DEDFEC016AE08FEC90E0D6
:10031000D9DF8C0F9D1FDF91CF9108950F931F930D
:10032000CF93DF938C01D0E0C0E0F801EC0FFD1F0C
:100330006491662339F08FEC90E0C4DF892B11F0D3
:100340002196F3CFCE01DF91CF911F910F910895A8
:10035000CF93DF93E3DFEC01D1DF8C0F9D1FDF91A3
:10036000CF910895DC011F96ED91FC9120A131A160
:1003700082A193A12817390779F0A2A1B3A1AE0FEA
:10038000BF1F8C9122A133A12F5F3F4F2F713327C5
:1003900033A322A390E008958FEF9FEF0895DC012F
:1003A0001F96ED91FC9120A131A182A193A1281764
:1003B000390739F082A193A1E80FF91F808190E0FD
:1003C00008958FEF9FEF0895DC011F96ED91FC914A
:1003D00080A191A122A133A1821B930B8F71992738
:1003E0000895CF92DF92EF92FF920F931F93CF93D6
:1003F000DF936C01EB017B01E40EF51E10E000E0E1
:10040000CE15DF0561F06991D601ED91FC91019067
:10041000F081E02DC6010995080F191FF1CFC80121
:10042000DF91CF911F910F91FF90EF90DF90CF90D0
:100430000895F89414BE81B5886181BD11BC78948B
:100440000895FEDE68517C4F8F4F9F4F60939B0055
:1004500070939C0080939D0090939E0008951F933D
:10046000CF93DF93EC0118818BE790E0CEDB181778
:1004700021F0612F8BE790E0D0DB19818CE790E0D1
:10048000C4DB181721F0612F8CE790E0C6DBCE01AA
:10049000DF91CF911F910895CF92DF92EF92FF925B
:1004A0000F931F93CF93DF93EB017B0129E2E20EC1
:1004B000F11C8B016C01C61AD70AC601800F911F6F
:1004C000A4DBF80181938F01EE15FF05B1F7CE0192
:1004D000DF91CF911F910F91FF90EF90DF90CF9020
:1004E0000895CF93DF93FC0101900020E9F7319745
:1004F000AF01481B590BBC018FEC90E072DFEC019F
:10050000FDDE8C0F9D1FDF91CF91089587FF09C0FD
:100510008F7771F1813071F1823071F1833071F137
:100520008FEF90E0FC01E154FF4F3491FC01E75460
:10053000FF4F2491FC01ED54FF4FE491EE23B9F0FD
:10054000332329F03130E1F48AB58F778ABDF0E0AA
:10055000EE0FFF1FE355FF4FA591B4918FB76111C7
:1005600020C0F894EC9120952E232C938FBF0895F2
:1005700085E0D7CF82E0D5CF84E0D3CF83E0D1CF61
:10058000323019F48AB58F7DE1CF333021F480B752
:100590008F7D80BFDCCF3430D1F68CB58F7D8CBDA4
:1005A000D6CFF894EC912E2BE0CFA9E0B1E085E610
:1005B000FD0111928A95E9F7E1EEF0E0B28FA18F8B
:1005C0001386158E148E138E118660E087819ECF60
:1005D0008091940090919500009761F18130910590
:1005E000B1F4909392008093910061E083E08EDFFC
:1005F00060918E0070918F0090E080E042E253E0C5
:100600002BDE109295001092940080E008958230C5
:10061000910581F4909392008093910061E083E0D2
:1006200075DF80918E0090918F0063E070E0A0DB19
:10063000BC01E2CF60E083E069DF1092920010928B
:100640009100DFCF60E083E061DF83E090E0909392
:1006500092008093910060918E0070918F0090E0E5
:1006600080E048EE52E0F8DD80E00895CF93DF931C
:1006700090E0FC01E754FF4F24918D549F4FFC0103
:1006800084918823C9F090E0880F991FFC01E955F7
:10069000FF4FA591B491FC01E355FF4FC591D49153
:1006A00061110DC09FB7F8948C91209582238C9393
:1006B0008881282328839FBFDF91CF9108956230DE
:1006C00051F49FB7F8943C91822F809583238C93AB
:1006D000E8812E2BEFCF8FB7F894EC912E2B2C9333
:1006E0008FBFEACF4F925F926F927F928F929F92CD
:1006F000AF92BF92CF92DF92EF92FF920F931F9330
:10070000CF93DF93CDB7DEB7C655D1090FB6F894B6
:10071000DEBF0FBECDBF80919100909192000497F3
:1007200021F5F8948091010190910201A0910301BB
:10073000B09104010196A11DB11D80930101909318
:100740000201A0930301B093040178948091FD000D
:100750009091FE00833091050CF086C081309105A8
:100760000CF00DC2892B09F4B2C0B09911C069DE3A
:1007700080919100909192008430910509F0C1C25E
:1007800014DF60E083E0C2DE1092920010929100CC
:1007900010929300B19BBCC21092900081E8F3DCF0
:1007A0008C0180E8F0DC5C01C80163E270E0E0DA13
:1007B0006FEF73E007DB6B5F7F4F6B01F12CE12C78
:1007C000C0926100D0926200E0926300F0926400F7
:1007D00060EB74E080E090E0A701960107DB3093C6
:1007E0008F0020938E00C701B60181D99B01AC0117
:1007F0002093E1003093E2004093E3005093E40043
:1008000060E070E086E994E41FDA86DA6093F10034
:100810007093F2008093F3009093F400C50183512C
:100820009240879708F0C2C200918C0010918D0011
:100830000115110509F083C2D6DC80E8A4DC8351E0
:100840009240879708F0A0C2FBDC60938800709309
:10085000890080938A0090938B0081E090E09093D0
:100860008D0080938C0090C2883091050CF4DFC11C
:10087000089709F07ACF1092E5008091E7009091F7
:10088000E900992309F475C161E040DE61E08091DF
:10089000E8003CDE409101015091020160910301AA
:1008A000709104018091050190910601A0910701CA
:1008B000B091080184179507A607B70708F055CF30
:1008C0001092EB001092FE001092FD004ECF10929D
:1008D000E5008091E600882309F447CF809001016C
:1008E00090900201A0900301B09004010091F500E6
:1008F000602F0F3108F06EE170E090E080E020E6BC
:100900003AEE40E050E045DA860E971EA81EB91E6A
:100910008092F6009092F700A092F800B092F90051
:10092000E090FA00F090FB006091F1007091F2000D
:100930008091F3009091F40029E0E21621E0F206A4
:10094000D1F52091FC00211136C0E09109010E2E55
:10095000000CFF0BE250F040E491E093FC0020918A
:10096000EB00222341F128E030E03093FE00209399
:10097000FD00C0900101D0900201E0900301F090D1
:10098000040127E030E040E050E003DAC60ED71E55
:10099000E81EF91EC0920501D0920601E0920701FF
:1009A000F0920801C0920501D0920601E092070181
:1009B000F0920801DACE1091FC00112309F494C0E2
:1009C000103819F11F3F09F05BC0C0900101D090B1
:1009D0000201E0900301F090040127E030E040E0E4
:1009E00050E0D7D9C60ED71EE81EF91EC0920501E9
:1009F000D0920601E0920701F092080185E090E0B4
:100A00009093FE008093FD00B0CE80900101909005
:100A10000201A0900301B090040123E030E040E027
:100A200050E0B7D9860E971EA81EB91E8092050108
:100A300090920601A0920701B092080184E090E034
:100A40009093FE008093FD00C70101969093FB00F8
:100A50008093FA008091EC008F5F8093EC00D701C7
:100A60001196EC91E11103C01092FC007ECE0E2E87
:100A7000000CFF0BE250F040E491E093FC0075CED7
:100A8000C0900101D0900201E0900301F0900401B8
:100A900017FF1BC023E030E040E050E07AD9C60EDB
:100AA000D71EE81EF91EC0920501D0920601E09201
:100AB0000701F092080182E090E09093FE0080939D
:100AC000FD00110F1093FC0050CEC60ED71EE81E7D
:100AD000F91EC0920501D0920601E0920701F09242
:100AE000080181E090E0E9CF27E030E040E050E00D
:100AF00050D9AB01BC018091010190910201A091FC
:100B00000301B0910401840F951FA61FB71F0111A7
:100B10000BC08093050190930601A0930701B09349
:100B2000080187E090E06CCF88169906AA06BB06FC
:100B3000B8F48091010190910201A0910301B0915C
:100B40000401840F951FA61FB71F80930501909382
:100B50000601A0930701B093080186E090E050CF12
:100B60008092050190920601A0920701B0920801BF
:100B7000F4CF882311F060E0C9DC60E088CE81E02A
:100B80008093E5008091E7009091E900992319F0A6
:100B900061E0BCDC02C08111FBCF61E08091E80024
:100BA000B5DC409101015091020160910301709107
:100BB00004018091050190910601A0910701B09177
:100BC000080184179507A607B70708F0CECD109245
:100BD000E5008091E90061E0811107C08091E700A4
:100BE000882311F060E092DC60E08091E8008EDC08
:100BF0008091010190910201A0910301B091040143
:100C00004091F1005091F2006091F3007091F40076
:100C1000840F951FA61FB71F8093050190930601AF
:100C2000A0930701B093080183E090E0E9CE109211
:100C3000E5008091E90061E0811107C08091E70043
:100C4000882311F060E062DC60E08091E8005EDC07
:100C500040910101509102016091030170910401E2
:100C60008091050190910601A0910701B0910801C2
:100C700084179507A607B70708F077CD8091FD0088
:100C80009091FE0085309105F1F4E091FA00F09129
:100C9000FB00CF0101969093FB008093FA008091B6
:100CA000EC008F5F8093EC00E181E11103C01092B2
:100CB000FC0008CE0E2E000CFF0BE250F040E49139
:100CC000E093FC00FFCD079709F0FCCDE9E0F1E0EF
:100CD00085E6DF011D928A95E9F71092EA001092ED
:100CE000EC008091E900882329F060E08091E80021
:100CF0000DDCE8CD8091E7008823B9F360E006DCE5
:100D0000F4CF079709F43CCD81E08093930042CD66
:100D100098DB80919100909192008430910511F0C0
:100D2000079749F442DC60E083E0F0DB1092920028
:100D30001092910031CD81E0809390002FCD80DA28
:100D4000AB01BC018091880090918900A0918A003C
:100D5000B0918B0088519C4FAF4FBF4F84179507C0
:100D6000A607B70788F40730110571F06ADB07E0C2
:100D700010E0109392000093910061E083E0C6DBE5
:100D800010938D0000938C00E0919100F0919200FF
:100D9000E730F10508F006C2E153F94F0994CDC1DF
:100DA0001AC22BC238C258C24AC261C2C501875C8E
:100DB0009240879708F0C4C000918C0010918D007C
:100DC0000115110599F40FDA80E8DDD9875C9240AE
:100DD0008797D0F635DA6093880070938900809306
:100DE0008A0090938B0082E090E039CD29DAAB0144
:100DF000BC018091880090918900A0918A00B091F7
:100E00008B0088519C4FAF4FBF4F84179507A607A3
:100E1000B70708F0B9CF0730110509F4B5CF11DBDA
:100E200085E090E090939200809391008091600023
:100E3000843071F440918400509185006091860067
:100E400070918700483552406105710509F45FC013
:100E500048E552E060E070E04093840050938500E4
:100E600060938600709387008F3F11F510BE8CB59C
:100E700081788CBD1FBC1EBC1BBC1DBC89B78B7987
:100E800089BF88B7846688BF80E880BF1092AA00B7
:100E90001092A9001092A8008CB58F7D8CBD8CB5E6
:100EA00080618CBD61E084E0E1DB84E080936000E0
:100EB00080916000843059F580B7807F80BF1FBC6F
:100EC00021E085E09DE0A0E0B0E02F5FB695A7951A
:100ED000979587958F3F9105A105B10519F010F001
:100EE0002F3099F73FEF380F3DBD0197A109B109A8
:100EF0008EBD8FEF9FEFDC0180939600909397005B
:100F0000A0939800B093990080B7282B20BF65E785
:100F100070E089E091E0ABD789E091E09093FB002D
:100F20008093FA001092EC001092FE001092FD00E7
:100F30001092FC0081E08093EA0087E090E08FCC83
:100F40000091910010919200C501855393408797BD
:100F500008F081C0E0908C00F0908D00E114F10465
:100F6000A1F441D980E80FD985539340879708F0C1
:100F70000BCF66D9609388007093890080938A00B4
:100F800090938B0083E090E06ACC5AD9AB01BC010E
:100F90008091880090918900A0918A00B0918B0087
:100FA00088519C4FAF4FBF4F84179507A607B707CF
:100FB00008F0EACEE7E0EE16F10409F4E5CE41DAF6
:100FC0000630110591F410929200109291008DE973
:100FD00090E0BED99FD862E080E048DB62E081E02B
:100FE00045DB8BB780628BBFA8CF8BB78F7D8BBF64
:100FF00086E090E0909392008093910061E080E021
:1010000035DB60E081E032DB8EE08093E0004398E6
:10101000469A4798419A409A87B32091DB00922FD5
:101020009095982397BB88B3822B88BB97B3209168
:10103000DC00922B97BB88B3822B88BB449A439ADF
:101040005DD98DE890E084D983E890E067D988E79E
:1010500090E047DA72CFFCEEAF16F3E0BF0608F47B
:1010600093CEE0908C00F0908D00E114F10409F42F
:101070008BCEE6D88090880090908900A0908A005E
:10108000B0908B00240135012AE0420E511C611CF6
:10109000711C641575058605970528F1D1D8A8EE51
:1010A0008A0EA3E09A1EA11CB11C681579058A0559
:1010B0009B05C8F4B2E0EB16F10419F1E3E0EE167B
:1010C000F10469F1EA94EF2871F40430110519F084
:1010D0000730110569F469DA60E083E017DA1092ED
:1010E00092001092910010928D0010928C004CCEC4
:1010F00084E090E0909392008093910080E0CED2C3
:10110000F2CF0430110539F30730110521F384E0E3
:1011100090E0909392008093910089E2F0CF0430A8
:101120001105C9F207301105B1F284E090E0909307
:1011300092008093910082E5E2CF80919000882315
:1011400091F080918E0090918F0020919A0022233F
:10115000B1F022E030E0309392002093910063E000
:1011600070E006D612C0809193008823D9F0809158
:101170008E0090918F0020919A00222351F321E05C
:1011800030E03093920020939100BC0190E080E029
:1011900042E253E061D8109295001092940061E011
:1011A00083E0B4D981E0CA5ADF4F0FB6F894DEBFAE
:1011B0000FBECDBFDF91CF911F910F91FF90EF90A8
:1011C000DF90CF90BF90AF909F908F907F906F9067
:1011D0005F904F90089580919A00882359F08091F4
:1011E00090008823F9F282E090E09093950080933C
:1011F0009400D8CF80919300F4CF80919A008823F7
:1012000039F080919300882369F281E090E0EDCF7E
:1012100080919000F8CF8091940090919500892B57
:1012200071F480919300882361F080919A00882363
:1012300081F081E090E0909395008093940001D933
:10124000B1CF809190008823D1F380919A008823B8
:1012500081F382E090E0EFCFF4D88091EA00811131
:10126000A1CF67D710929200109291009BCFE9D83E
:101270008FEC90E0A9D8892B09F494CFCE01019688
:101280007C016C0110E000E0DBD76093D700709325
:10129000D8008093D9009093DA008FEC90E062D868
:1012A00097FFDBC0CDD78090D7009090D800A0905A
:1012B000D900B090DA00681979098A099B098090F1
:1012C000D3009090D400A090D500B090D6006815BF
:1012D00079058A059B0508F3F701E00FF11F1082DD
:1012E0008A818F3309F056C00981002E000C110B42
:1012F000C801A4D5813391050CF454CF84339105F2
:10130000D4F18735910509F04DCF109161007091AE
:10131000620080916300909164002F961FAE2F971A
:101320007E01BEE4EB0EF11C2AE0822E912CA12C52
:10133000B12C612FA501940159D5822F6AE07BD48D
:10134000181B1A302CF5105DF70112937F01122F34
:10135000732FCA01232B242B252B59F70190002032
:10136000E9F73197AF014E195F09B7018FEC90E0B3
:1013700038D8C4D717CF8FEC800F69E25CD4BE0198
:10138000625D7F4F90E088D8CE018E96AAD80ACFB2
:10139000195CDACF8A3309F005CF1981812F012E2C
:1013A000000C990B4BD58E34910509F451C04CF5C6
:1013B000C197039708F0F6CE48E250E0BE016D5F9A
:1013C0007F4FC70143D5C70188D31153812F90E0C8
:1013D00069E270E0CDD44C0110E000E0D701BD908F
:1013E0007D016401C00ED11EC6010FD4B81619F0DC
:1013F0006B2DC60112D40F5F1F4F0D32110571F70F
:10140000D1CE82359105C9F08835910509F0CACE53
:10141000109292001092910089E790E099D77AD6C5
:1014200062E080E023D962E081E020D987E090E0AB
:1014300090938D0080938C00B5CE81E080939A00CC
:1014400081E090E09FA78EA7CE018E9608D8AACE05
:1014500010929A001FA61EA6F7CF8A30910509F4B4
:101460003BCFD6018D936D010F5F1F4F0C321105DD
:1014700009F00ACF31CF1F920F920FB60F921124AD
:101480002F933F938F939F93AF93BF938091A0002F
:101490009091A100A091A200B091A30030919F0073
:1014A0002CE0230F2D3768F12FE8230F0596A11D9F
:1014B000B11D20939F008093A0009093A100A09362
:1014C000A200B093A3008091A4009091A500A091E8
:1014D000A600B091A7000196A11DB11D8093A400A4
:1014E0009093A500A093A600B093A700BF91AF91E1
:1014F0009F918F913F912F910F900FBE0F901F9052
:1015000018950496A11DB11DD4CF1F920F920FB64E
:101510000F9211242F933F934F935F936F937F9379
:101520008F939F93AF93BF93EF93FF938091960018
:1015300090919700A0919800B0919900892B8A2BE7
:101540008B2B61F18091960090919700A09198006B
:10155000B0919900181619061A061B068CF5809191
:10156000960090919700A0919800B09199000197F2
:10157000A109B1098093960090939700A0939800D9
:10158000B09399008091960090919700A091980057
:10159000B0919900892B8A2B8B2B91F4CAD5FF919E
:1015A000EF91BF91AF919F918F917F916F915F91DB
:1015B0004F913F912F910F900FBE0F901F90189554
:1015C0009091A800E091A900F091AA00808189275C
:1015D0008083E5CF1F920F920FB60F9211242F93A5
:1015E0003F934F935F937F938F939F93AF93BF935B
:1015F000EF93FF934091DB0020E038E035D034D00A
:1016000033D032D031D0889476B3742309F0089463
:1016100027953A9509F0F3CF27D026D0E091DE0048
:10162000F091DF0080A191A101968F71992742A1CD
:1016300053A18417950739F0A0A1B1A1AE0FBF1F28
:101640002C9391A380A3449AFF91EF91BF91AF9106
:101650009F918F917F915F914F913F912F910F902B
:101660000FBE0F901F9018958091E000982F9A95CB
:10167000F1F708951F920F920FB60F9211240F9059
:101680000FBE0F901F9018951F920F920FB60F92DA
:1016900011240F900FBE0F901F901895CF93DF93DA
:1016A000CDB7DEB7A9970FB6F894DEBF0FBECDBF9A
:1016B000BE016F5F7F4F90E0EFD6BE016F5F7F4F3F
:1016C00089E091E0D4D3E1EEF0E089E091E0928FFF
:1016D000818F1386158E148E138E81E08187A996D3
:1016E0000FB6F894DEBF0FBECDBFDF91CF91089546
:1016F0001F93CF93DF93EFECF0E01382128288EE1A
:1017000093E0A0E0B0E084839583A683B78389E665
:1017100090E0918380838BEA90E0908B878782E0D2
:10172000848711E015878EEF8687118A80E1EEE8C5
:10173000F1E0DF011D928A95E9F780E2EEE6F1E043
:10174000DF011D928A95E9F7609161007091620056
:101750008091630090916400CAD19B01AC01C1EEFD
:10176000D0E01C821D8383E08E838F8318861A86C7
:101770001B861C8A1A8E198E1B8E19862883398324
:101780004A835B8360E070E086E994E45DD2C4D272
:10179000688B798B8A8B9B8B61E083E067D71D8E8A
:1017A0001C8E1F8E1E8EDF91CF911F91089520E811
:1017B00026BD91E096BD83E08ABD83BF789489B74A
:1017C000826089BF80E48CBD8FEF8DBD86EC80BFC9
:1017D00085E886B9F89426BD96BD04B603FC29D6E3
:1017E00085B7806285BF85B7877E806185BF8BB7EF
:1017F00080628BBF85B3836085BB78948BE790E074
:1018000004D280939A0061E083E030D761E084E005
:101810002DD762E080E02AD762E081E027D760E040
:1018200083E074D6BAD420918E0130918F01232B9E
:1018300051F522E733E030938F0120938E0110920F
:1018400091011092900160939201709393018093A3
:1018500094019093950188EE93E0A0E0B0E080932E
:10186000960190939701A0939801B093990181E01C
:1018700090E0A0E0B0E080939A0190939B01A09348
:101880009C01B0939D0111E480918E0190918F0194
:10189000892B09F457C081D46B017C01809192019E
:1018A00090919301A0919401B0919501B701A60187
:1018B000481B590B6A0B7B0B809196019091970105
:1018C000A0919801B0919901481759076A077B07C1
:1018D000C8F1E0918E01F0918F018091900190917B
:1018E000910109958111BBC0482F50E070E060E084
:1018F00040939A0150939B0160939C0170939D01CA
:101900008111A4C010928F0110928E01109291014A
:1019100010929001109292011092930110929401F2
:1019200010929501109296011092970110929801D1
:101930001092990110929A0110929B0110929C01B1
:1019400010929D012AD480918E0190918F01892B54
:1019500009F023D422D4CEE6D1E088819981892B65
:10196000B1F16ED46B017C018C819D81AE81BF8110
:10197000B701A601481B590B6A0B7B0B888599851B
:10198000AA85BB85481759076A077B0700F1E881DC
:10199000F9818A819B810995882351F081E04C85EA
:1019A0005D856E857F85452B462B472B09F480E0AE
:1019B000482F50E070E060E04C875D876E877F873E
:1019C000882309F45CC0CC82DD82EE82FF826096BF
:1019D00021E0CE38D20708F233D4CEE6D1E08881B8
:1019E0009981892B09F05CC0609681E0CE38D807D8
:1019F000B0F326D425D4C0909B00D0909C00E090FA
:101A00009D00F0909E00C616D706E806F90608F07D
:101A10003BCF80B58F6080BD3798F89481B58861E1
:101A200081BD11BD789485B7806285BF889585B7E3
:101A30008F7D85BFFED480B5807F80BD80E8A3D335
:101A40008C3F934008F040C0FCD41ECFC09292015E
:101A5000D0929301E0929401F092950173CF81E0CE
:101A600040919A0150919B0160919C0170919D0160
:101A7000452B462B472B09F037CF80E035CF198215
:101A800018821B821A821C821D821E821F82188667
:101A900019861A861B861C861D861E861F8697CF72
:101AA000CFD3CC80DD80EE80FF806C197D098E095C
:101AB0009F09C884D984EA84FB846C157D058E0552
:101AC0009F0508F491CF95CF10929B0010929C0037
:101AD00010929D0010929E00D7CEDC016C91615651
:101AE0006A3108F0605E6F5B6D93C1F70895E8940A
:101AF00009C097FB3EF490958095709561957F4F56
:101B00008F4F9F4F9923A9F0F92F96E9BB27939503
:101B1000F695879577956795B795F111F8CFFAF413
:101B2000BB0F11F460FF1BC06F5F7F4F8F4F9F4F44
:101B300016C0882311F096E911C0772321F09EE8A2
:101B4000872F762F05C0662371F096E8862F70E008
:101B500060E02AF09A95660F771F881FDAF7880FE2
:101B60009695879597F9089597F99F6780E870E0B3
:101B700060E008959FEF80EC089500240A94161603
:101B8000170618060906089500240A94121613066B
:101B9000140605060895092E0394000C11F48823F9
:101BA00052F0BB0F40F4BF2B11F460FF04C06F5F15
:101BB0007F4F8F4F9F4F089557FD9058440F551FEB
:101BC00059F05F3F71F04795880F97FB991F61F0BF
:101BD0009F3F79F087950895121613061406551F36
:101BE000F2CF4695F1DF08C0161617061806991FA2
:101BF000F1CF86957105610508940895E894BB2797
:101C000066277727CB0197F90895E199FECF9FBB0F
:101C10008EBBE09A99278DB30895262FE199FECFC8
:101C20001CBA9FBB8EBB2DBB0FB6F894E29AE19A0B
:101C30000FBE01960895002480FD060E660F11F078
:101C40008695D1F7802D08950CD0A5CF9DDF40F06B
:101C500094DF30F021F45F3F19F086CF5111CFCFE0
:101C600089CFAADF98F39923C9F35523B1F3951BC4
:101C7000550BBB27AA2762177307840738F09F5FAD
:101C80005F4F220F331F441FAA1FA9F333D00E2E1C
:101C90003AF0E0E830D091505040E695001CCAF789
:101CA00029D0FE2F27D0660F771F881FBB1F26174E
:101CB00037074807AB07B0E809F0BB0B802DBF0121
:101CC000FF2793585F4F2AF09E3F510568F04CCF95
:101CD00096CF5F3FECF3983EDCF38695779567955A
:101CE000B795F7959F5FC9F7880F911D96958795D2
:101CF00097F90895E1E0660F771F881FBB1F6217F1
:101D000073078407BA0720F0621B730B840BBA0BAE
:101D1000EE1F88F7E095089557DF88F09F5790F001
:101D2000B92F9927B751A0F0D1F0660F771F881F00
:101D3000991F1AF0BA95C9F712C0B13081F05EDF71
:101D4000B1E008955BCF672F782F8827B85F39F00F
:101D5000B93FCCF3869577956795B395D9F73EF45F
:101D600090958095709561957F4F8F4F9F4F089507
:101D70000024552704C0080E591F880F991F00978B
:101D800029F076956795B8F37105B9F7802D952FF1
:101D90000895EE27FF27AA27BB2708C0A20FB31F6D
:101DA000E41FF51F220F331F441F551F969587957B
:101DB0007795679598F37040A9F7009799F7BD015B
:101DC000CF010895AA1BBB1B51E107C0AA1FBB1F6F
:101DD000A617B70710F0A61BB70B881F991F5A95B7
:101DE000A9F780959095BC01CD010895A1E21A2E26
:101DF000AA1BBB1BFD010DC0AA1FBB1FEE1FFF1FAF
:101E0000A217B307E407F50720F0A21BB30BE40BFE
:101E1000F50B661F771F881F991F1A9469F7609545
:101E20007095809590959B01AC01BD01CF010895FF
:101E3000EE0FFF1F0590F491E02D09949111089584
:101E400081568A5108F48052855808956817790799
:101E500068F4FB01DC01E40FF51FA40FB51F02C0FD
:101E600002900E9241505040D8F7089507C0FB01F0
:101E7000DC0101900D920020E1F70895FB01DC01E7
:101E800002C001900D9241505040D8F70895F89447
:021E9000FFCF82
:101E9200FF14000000000000006201F101E401B241
:101EA20001CF01610148490032312046656220328A
:041EB2003032340096
:00000001FF
