:1000000063C087C01ACB66CA84C01ACA82C0C5CA78
:1000100080C07FC07EC07DC01ACB7BC07AC0FF800D
:100020008080808080808080808080E08094FC7CE4
:100030003C1C0C0484C4E4F48080808C803280609A
:1000400088A8904028D0082078B048E0A0F068D870
:100050005010C030187098B8C88080808080806050
:1000600088A8904028D0082078B048E0A0F068D850
:100070005010C030187098B8C84578697420554140
:100080005254004669726D7761726520004574684C
:1000900065724B65796572204D696E6900457869B6
:1000A0007420554152540000000000370000000049
:1000B00000380002020202020201020408102001BC
:1000C0000300000400005B0B11241FBECFE5D2E04B
:1000D000DEBFCDBF21E0A2E8B0E001C01D92AA3989
:1000E000B207E1F710E0A0E6B0E0E2E7FEE102C00F
:1000F00005900D92A238B107D9F710E0C4E6D0E020
:1001000003C02197FE0184DEC336D107D1F732DB6D
:10011000AECE76CF449A43984698479AEBECF0E0FF
:10012000118A0784F089E02D82A193A191A380A375
:100130000895809160008F3FC1F089B78B7989BFA6
:1001400010BE8CB581788CBD1FBC1EBC1BBC1DBCF9
:1001500089B78B7989BF84E688BF80E48CBD8FEF37
:100160008DBD96EC90BF8093600008958F7787B91E
:1001700087B187B9369A3699FECF84B195B1089583
:100180003FB7F8948091A2009091A300A091A400A1
:10019000B091A50022B708B601FE05C02F3F19F0A7
:1001A0000196A11DB11D3FBFBA2FA92F982F8827F7
:1001B000BC01CD01620F711D811D911D44E0660FD0
:1001C000771F881F991F4A95D1F70895CF92DF9224
:1001D000EF92FF92CF93DF93D3DFEB018AE0C82E3B
:1001E000D12CE12CF12CCCDF6C1B7D0B683E7340D5
:1001F000A0F0C114D104E104F10439F4DF91CF91EE
:10020000FF90EF90DF90CF90089581E0C81AD10859
:10021000E108F108C851DC4FE6CFC114D104E10474
:10022000F10409F7EBCF2FB7F89460919E0070911D
:100230009F008091A0009091A1002FBF0895CF92C0
:10024000DF92EF92FF92CF93DF936B017C01EA0183
:10025000EADF20916A0130916B01232B59F0209144
:100260007A0130917B01F0E0E0E0232BA9F4EAE78A
:10027000F1E002C0EAE6F1E0D183C083138212828A
:100280006483758386839783C086D186E286F386EE
:100290001486158616861786CF01DF91CF91FF90C1
:1002A000EF90DF90CF90089508952FB7F894FC0158
:1002B000458556853AE06095089420F478B3752317
:1002C00078BB04C078B3742B78BB0000B0D9AFD929
:1002D000AED9ADD966953A9581F72FBF81E090E010
:1002E0000895CF93DF936DE08BEC90E0DEDFEC01BF
:1002F0006AE08BEC90E0D9DF8C0F9D1FDF91CF91EE
:1003000008950F931F93CF93DF938C01D0E0C0E04B
:10031000F801EC0FFD1F6491662339F08BEC90E03F
:10032000C4DF892B11F02196F3CFCE01DF91CF915D
:100330001F910F910895CF93DF93E3DFEC01D1DF9D
:100340008C0F9D1FDF91CF910895DC011F96ED91D9
:10035000FC9120A131A182A193A12817390779F03E
:10036000A2A1B3A1AE0FBF1F8C9122A133A12F5F19
:100370003F4F2F71332733A322A390E008958FEFCF
:100380009FEF0895DC011F96ED91FC9120A131A112
:1003900082A193A12817390739F082A193A1E80F10
:1003A000F91F808190E008958FEF9FEF0895DC01A1
:1003B0001F96ED91FC9180A191A122A133A1821BF6
:1003C000930B8F7199270895CF92DF92EF92FF924E
:1003D0000F931F93CF93DF936C01EB017B01E40E2E
:1003E000F51E10E000E0CE15DF0561F06991D60141
:1003F000ED91FC910190F081E02DC6010995080F67
:10040000191FF1CFC801DF91CF911F910F91FF907C
:10041000EF90DF90CF900895F89414BE81B5886175
:1004200081BD11BC78940895FEDE68517C4F8F4FDA
:100430009F4F6093990070939A0080939B009093D4
:100440009C000895CF93DF93FC0101900020E9F711
:100450003197AF01481B590BBC018BEC90E0B4DF26
:10046000EC013FDF8C0F9D1FDF91CF91089587FF37
:1004700009C08F7771F1813071F1823071F1833071
:1004800071F18FEF90E0FC01E154FF4F3491FC01DA
:10049000E754FF4F2491FC01ED54FF4FE491EE230C
:1004A000B9F0332329F03130E1F48AB58F778ABD72
:1004B000F0E0EE0FFF1FE355FF4FA591B4918FB70A
:1004C000611120C0F894EC9120952E232C938FBFBE
:1004D000089585E0D7CF82E0D5CF84E0D3CF83E005
:1004E000D1CF323019F48AB58F7DE1CF333021F48A
:1004F00080B78F7D80BFDCCF3430D1F68CB58F7D57
:100500008CBDD6CFF894EC912E2BE0CFA5E0B1E0D6
:1005100085E6FD0111928A95E9F7EDEDF0E0B28FE5
:10052000A18F1386158E148E138E118660E087813D
:100530009ECF809190009091910081309105E1F4DF
:1005400010928F0010928E0081E090E090938D00C9
:1005500080938C00109291001092900061E083E0F3
:1005600086DF60918A0070918B0090E080E04AEE17
:1005700052E065DE80E0089582309105D1F410925A
:100580008F0010928E0082E090E090938D00809317
:100590008C00109291001092900061E083E067DF80
:1005A00080918A0090918B0063E070E0D1DBBC0108
:1005B000DCCF8330910521F2049709F360E083E0FA
:1005C00056DF10928D0010928C00109291001092C4
:1005D0009000D0CF60E083E04ADF85E090E0909328
:1005E0008D0080938C0060918A0070918B0090E068
:1005F00080E049E952E023DE80E00895CF93DF9365
:1006000090E0FC01E754FF4F24918D549F4FFC0173
:1006100084918823C9F090E0880F991FFC01E95567
:10062000FF4FA591B491FC01E355FF4FC591D491C3
:1006300061110DC09FB7F8948C91209582238C9303
:100640008881282328839FBFDF91CF91089562304E
:1006500051F49FB7F8943C91822F809583238C931B
:10066000E8812E2BEFCF8FB7F894EC912E2B2C93A3
:100670008FBFEACFCF92DF92EF92FF920F931F933B
:10068000CF93DF93EB017B0129E2E20EF11C8B019A
:100690006C01C61AD70AC601800F911FA6DAF801AD
:1006A00081938F01EE15FF05B1F7CE01DF91CF9158
:1006B0001F910F91FF90EF90DF90CF900895FF92E0
:1006C0000F931F93CF93DF93EC018B01FB01F0801D
:1006D0008CDAF81619F06F2DCE018FDAF801F1805F
:1006E0002196CE0182DAF81619F06F2DCE0185DA47
:1006F000C801DF91CF911F910F91FF9008954F9204
:100700005F926F927F928F929F92AF92BF92CF92A1
:10071000DF92EF92FF920F931F93CF93DF93CDB7AA
:10072000DEB7C655D1090FB6F894DEBF0FBECDBFF8
:1007300080918C0090918D00069719F5F894809126
:10074000FD009091FE00A091FF00B0910001019684
:10075000A11DB11D8093FD009093FE00A093FF00AA
:10076000B093000178948091F9009091FA00833061
:100770009105DCF4813091050CF0A0C1892B09F4BE
:1007800045C0B0995DC250DE80918C0090918D0083
:100790008630910509F0BFC2B9DE60E083E067DE14
:1007A00010928D0010928C004DC2883091050CF48F
:1007B000DDC1089731F71092E1008091E30090913C
:1007C000E500992309F474C161E051DE61E0809194
:1007D000E4004DDE4091FD005091FE006091FF006D
:1007E000709100018091010190910201A09103019B
:1007F000B091040184179507A607B70710F6109269
:10080000E7001092FA001092F900BBCF1092E100BD
:100810008091E200882309F4B4CF8090FD0090908D
:10082000FE00A090FF00B09000010091F100602F49
:100830000F3108F06EE170E090E080E020E63AEEE3
:1008400040E050E096DA860E971EA81EB91E8092F0
:10085000F2009092F300A092F400B092F500E090C4
:10086000F600F090F7006091ED007091EE0080913D
:10087000EF009091F00025E0E21621E0F206D1F5BC
:100880002091F800211136C0E09105010E2E000CD8
:10089000FF0BE250F040E491E093F8002091E70074
:1008A000222341F128E030E03093FA002093F90050
:1008B000C090FD00D090FE00E090FF00F09000019D
:1008C00027E030E040E050E054DAC60ED71EE81EC4
:1008D000F91EC0920101D0920201E0920301F09250
:1008E0000401C0920101D0920201E0920301F09252
:1008F000040147CF1091F800112309F494C0103877
:1009000019F11F3F09F05BC0C090FD00D090FE00C0
:10091000E090FF00F090000127E030E040E050E080
:1009200028DAC60ED71EE81EF91EC0920101D09229
:100930000201E0920301F092040185E090E09093BF
:10094000FA008093F9001DCF8090FD009090FE008A
:10095000A090FF00B090000123E030E040E050E0C4
:1009600008DA860E971EA81EB91E80920101909289
:100970000201A0920301B092040184E090E0909300
:10098000FA008093F900C70101969093F7008093D5
:10099000F6008091E8008F5F8093E800D701119600
:1009A000EC91E11103C01092F800EBCE0E2E000C7A
:1009B000FF0BE250F040E491E093F800E2CEC090EB
:1009C000FD00D090FE00E090FF00F090000117FFC6
:1009D0001BC023E030E040E050E0CBD9C60ED71E6C
:1009E000E81EF91EC0920101D0920201E0920301BB
:1009F000F092040182E090E09093FA008093F90075
:100A0000110F1093F800BDCEC60ED71EE81EF91EBA
:100A1000C0920101D0920201E0920301F092040120
:100A200081E090E0E9CF27E030E040E050E0A1D95C
:100A3000AB01BC018091FD009091FE00A091FF00F0
:100A4000B0910001840F951FA61FB71F01110BC0A5
:100A50008093010190930201A0930301B0930401DC
:100A600087E090E06CCF88169906AA06BB06B8F41A
:100A70008091FD009091FE00A091FF00B0910001D7
:100A8000840F951FA61FB71F809301019093020149
:100A9000A0930301B093040186E090E050CF8092D0
:100AA000010190920201A0920301B0920401F4CFDF
:100AB000882311F060E0DBDC60E089CE81E0809388
:100AC000E1008091E3009091E500992319F061E045
:100AD000CEDC02C08111FBCF61E08091E400C7DC75
:100AE0004091FD005091FE006091FF007091000167
:100AF0008091010190910201A0910301B091040144
:100B000084179507A607B70708F03BCE1092E100BF
:100B10008091E50061E0811107C08091E3008823A6
:100B200011F060E0A4DC60E08091E400A0DC809142
:100B3000FD009091FE00A091FF00B0910001409156
:100B4000ED005091EE006091EF007091F000840F85
:100B5000951FA61FB71F8093010190930201A093D8
:100B60000301B093040183E090E0E9CE1092E1002C
:100B70008091E50061E0811107C08091E300882346
:100B800011F060E074DC60E08091E40070DC409182
:100B9000FD005091FE006091FF0070910001809176
:100BA000010190910201A0910301B0910401841709
:100BB0009507A607B70708F0E4CD8091F90090915A
:100BC000FA0085309105F1F4E091F600F091F7001C
:100BD000CF0101969093F7008093F6008091E80092
:100BE0008F5F8093E800E181E11103C01092F8006B
:100BF00008CE0E2E000CFF0BE250F040E491E09383
:100C0000F800FFCD079709F0FCCDE5E0F1E085E6BF
:100C1000DF011D928A95E9F71092E6001092E80034
:100C20008091E500882329F060E08091E4001FDCDA
:100C3000E8CD8091E3008823B9F360E018DCF4CFBD
:100C400010928900B19B6EC01092880081E88EDA04
:100C50008C0180E88BDA5C01C80166E270E078D82C
:100C60006FEF73E09FD86E5F7F4F6B01F12CE12C2B
:100C7000C0926100D0926200E0926300F092640042
:100C800060EB74E080E090E0A70196019FD830937C
:100C90008B0020938A00C701B60119D79B01AC01D4
:100CA0002093DD003093DE004093DF005093E0009E
:100CB00060E070E086E994E4B7D71ED86093ED0059
:100CC0007093EE008093EF009093F000C501835184
:100CD0009240879708F061C00091860010918700CC
:100CE00001151105B1F572DA80E840DA83519240BE
:100CF000879708F071C097DA609382007093830041
:100D0000809384009093850081E090E09093870029
:100D10008093860061C0099709F43ECD81E08093FD
:100D2000890090CF81DB80918C0090918D0086307E
:100D3000910511F0099749F4E9DB60E083E097DB66
:100D400010928D0010928C0081CF81E080938800FA
:100D50007DCF69DAAB01BC01809182009091830064
:100D6000A0918400B091850088519C4FAF4FBF4F38
:100D700084179507A607B70778F50730110561F1C5
:100D800053DB89E090E090938D0080938C0061E0CC
:100D900083E06DDB87E090E0B9CFC501875C9240CE
:100DA000879770F58091860090918700892B99F440
:100DB0000DDA80E8DBD9875C9240879768F433DAF4
:100DC00060938200709383008093840090938500E9
:100DD00082E090E09BCF27DAE0918C00F0918D00CB
:100DE000E930F10508F041C1E950F94F099404C117
:100DF00055C193C13AC139C1CAC1EEC1F8C1F9C1E7
:100E000000918C0010918D00C50185539340879708
:100E100008F080C0E0908600F0908700E114F104B3
:100E200099F4D4D980E8A2D9855393408797A0F646
:100E3000FAD960938200709383008093840090932A
:100E4000850083E090E062CFEED9AB01BC018091D8
:100E5000820090918300A0918400B0918500885118
:100E60009C4FAF4FBF4F84179507A607B70708F0F1
:100E7000B3CFB7E0EB16F10409F4AECFD5DA083002
:100E8000110591F410928D0010928C008DE990E084
:100E900052DA40D962E080E0B1DB62E081E0AEDBB3
:100EA0008BB780628BBF76CF8BB78F7D8BBF88E08F
:100EB00090E090938D0080938C0061E080E09EDB59
:100EC00060E081E09BDB8EE08093DC004398469AF3
:100ED0004798419A409A87B32091D700922F9095D6
:100EE000982397BB88B3822B88BB97B32091D800F7
:100EF000922B97BB88B3822B88BB449A439AF1D933
:100F00008DE890E018DA83E890E0FBD985E790E07F
:100F100099DA40CFECEEAE16E3E0BE0608F45CCF03
:100F2000E0908600F0908700E114F10409F454CFBA
:100F30007AD98090820090908300A0908400B09035
:100F4000850024013501FAE04F0E511C611C711C13
:100F5000641575058605970528F165D928EE820E7A
:100F600023E0921EA11CB11C681579058A059B051A
:100F7000C8F482E0E816F10419F1A3E0EA16F104DE
:100F800069F1EA94EF2871F40630110519F009307F
:100F9000110569F4BBDA60E083E069DA10928D0034
:100FA00010928C00109287001092860015CF86E078
:100FB00090E090938D0080938C0080E052D3F2CF2C
:100FC0000630110539F30930110521F386E090E070
:100FD00090938D0080938C0089E2F0CF063011054C
:100FE000C9F209301105B1F286E090E090938D00CE
:100FF00080938C0082E5E2CF80918800882391F075
:1010000080918A0090918B00209198002223B1F06A
:1010100022E030E030938D0020938C0063E070E09C
:1010200097D612C0809189008823F9F080918A00B8
:1010300090918B0020919800222351F321E030E021
:1010400030938D0020938C00BC0190E080E04AEE4C
:1010500052E0F5D810928F0010928E0010929100FD
:101060001092900061E083E002DA81E0CA5ADF4F1B
:101070000FB6F894DEBF0FBECDBFDF91CF911F91A9
:101080000F91FF90EF90DF90CF90BF90AF909F9027
:101090008F907F906F905F904F9008958091960011
:1010A000909197000097C1F48091880090918900F9
:1010B000992359F08823C9F281E090E090938F0042
:1010C00080938E0082E090E03FC08111CECF1092DD
:1010D000910010929000C9CF019739F68091980045
:1010E0008823C1F0809188008111E6CF809189002A
:1010F0008111BBCF809188008111B7CF8091900082
:1011000090919100029709F0B0CF10928F00109249
:101110008E00ABCF80918900E7CF809196009091AF
:1011200097000097B1F480918900909188009923ED
:1011300061F2882309F499CF82E090E090938F00C8
:1011400080938E0081E090E09093910080939000D6
:101150008CCF019709F089CF809198008823A1F066
:10116000809189008111E8CF8091890081117DCF24
:1011700080918800811179CF8091900090919100A9
:10118000019709F072CFC1CF80918800EBCF4CD985
:1011900080918E0090918F008230910569F480914A
:1011A0009800882331F080918900882309F45DCF6D
:1011B000C9CF80918800F9CF019709F056CF80916F
:1011C0009800882331F080918800882309F44DCF5E
:1011D00079CF80918900F9CF27D98091E6008111DC
:1011E00044CFA7D710928D0010928C003ECF1CD90F
:1011F0003CCF1AD98BEC90E0DAD8892B09F435CFA3
:101200008E010F5F1F4F6801F12CE12C0CD8609309
:10121000D3007093D4008093D5009093D6008BECCC
:1012200090E093D897FFFCC0FED78090D3009090B9
:10123000D400A090D500B090D600681979098A0929
:101240009B098090CF009090D000A090D100B090EA
:10125000D200681579058A059B0508F3F801EE0DA3
:10126000FF1D10828A818F3309F056C00981002E3C
:10127000000C110BC801D2D5813391050CF4F5CEC9
:1012800084339105D4F18735910509F0EECE1091A4
:1012900061007091620080916300909164002F96CC
:1012A0001FAE2F977E01AEE4EA0EF11C2AE0822EDB
:1012B000912CA12CB12C612FA501940187D5822FEF
:1012C0006AE0A9D4181B1A302CF5105DF7011293AF
:1012D0007F01122F732FCA01232B242B252B59F7A3
:1012E00001900020E9F73197AF014E195F09B7016E
:1012F0008BEC90E069D8F5D7B8CEC801C19769E208
:1013000070E026D5BE01625D7F4FB4D9CE018E96C6
:1013100099D8ABCE195CDACF8A3309F0A6CEF98022
:101320008F2D0F2C000C990B79D58234910509F47F
:1013300049C0B4F4813391050CF497CE8433910500
:101340000CF447C08134910509F08FCE10929700BC
:101350001092960066E970E080E890E0B0D985CE02
:101360008235910509F18835910549F08E34910552
:1013700009F07BCE109298001FA61EA61CC01092EA
:101380008D0010928C0089E790E0D5D7C3D662E03B
:1013900080E034D962E081E031D987E090E0909339
:1013A00087008093860061CE81E08093980081E081
:1013B00090E09FA78EA7BE01625D7F4F8BE790E014
:1013C0007ED953CE81E090E0909397008093960071
:1013D000C1CF48E250E0BE016D5F7F4FC80126D506
:1013E000C8016BD38FEC8F0D90E069E270E0B0D450
:1013F0004C01F12CE12CD801BD908D016401CE0C83
:10140000DF1CC601F2D3B81619F06B2DC601F5D357
:10141000BFEFEB1AFB0AEDE2EE16F10461F725CE01
:101420008A30910509F41ACFF60181936F01FFEF1D
:10143000EF1AFF0A2CE2E216F10409F0E7CE0ECF14
:101440001F920F920FB60F9211242F933F938F93F9
:101450009F93AF93BF9380919E0090919F00A09126
:10146000A000B091A10030919D002CE0230F2D37FA
:1014700068F12FE8230F0596A11DB11D20939D0053
:1014800080939E0090939F00A093A000B093A10032
:101490008091A2009091A300A091A400B091A5001A
:1014A0000196A11DB11D8093A2009093A300A0936B
:1014B000A400B093A500BF91AF919F918F913F91F0
:1014C0002F910F900FBE0F901F9018950496A11D9D
:1014D000B11DD4CF1F920F920FB60F9211242F93EC
:1014E0003F934F935F936F937F938F939F93AF93AC
:1014F000BF93EF93FF938091920090919300A091FE
:101500009400B0919500892B8A2B8B2B61F18091EF
:10151000920090919300A0919400B09195001816BC
:1015200019061A061B068CF5809192009091930083
:10153000A0919400B09195000197A109B109809301
:10154000920090939300A0939400B09395008091A3
:10155000920090919300A0919400B0919500892BF6
:101560008A2B8B2B91F4E5D5FF91EF91BF91AF9131
:101570009F918F917F916F915F914F913F912F91AB
:101580000F900FBE0F901F9018959091A60080911C
:101590000000892780930000E7CF1F920F920FB6BB
:1015A0000F9211242F933F934F935F937F938F93C9
:1015B0009F93AF93BF93EF93FF934091D70020E0A9
:1015C00038E035D034D033D032D031D0889476B3AF
:1015D000742309F0089427953A9509F0F3CF27D0A2
:1015E00026D0E091DA00F091DB0080A191A1019674
:1015F0008F71992742A153A18417950739F0A0A1B3
:10160000B1A1AE0FBF1F2C9391A380A3449AFF9169
:10161000EF91BF91AF919F918F917F915F914F918A
:101620003F912F910F900FBE0F901F9018958091B2
:10163000DC00982F9A95F1F708951F920F920FB63C
:101640000F9211240F900FBE0F901F9018951F92AC
:101650000F920FB60F9211240F900FBE0F901F9094
:101660001895CF93DF93CDB7DEB7A9970FB6F8944F
:10167000DEBF0FBECDBFBE016F5F7F4F90E0FAD7D8
:10168000BE016F5F7F4F85E091E0E1D3EDEDF0E0CB
:1016900085E091E0928F818F1386158E148E138EC4
:1016A00081E08187A9960FB6F894DEBF0FBECDBF4B
:1016B000DF91CF9108951F93CF93DF93EBECF0E090
:1016C0001382128288EE93E0A0E0B0E084839583D9
:1016D000A683B78389E690E09183808387EA90E0D0
:1016E000908B878782E0848711E015878EEF86874D
:1016F000118A80E1EAE8F1E0DF011D928A95E9F7BD
:1017000080E2EAE6F1E0DF011D928A95E9F7609157
:101710006100709162008091630090916400D7D164
:101720009B01AC01CDEDD0E01C821D8383E08E8354
:101730008F8318861A861B861C8A1A8E198E1B8E1A
:101740001986288339834A835B8360E070E086E9E9
:1017500094E46AD2D1D2688B798B8A8B9B8B61E0BF
:1017600083E04CD71D8E1C8E1F8E1E8EDF91CF9175
:101770001F91089520E826BD91E096BD83E08ABDC3
:1017800083BF789489B7826089BF80E48CBD8FEF76
:101790008DBD86EC80BF85E886B9F89426BD96BDE0
:1017A00004B603FC39D685B7806285BF85B7877ECE
:1017B000806185BF8BB780628BBF85B3836085BB3B
:1017C00078948BE790E011D28093980080E890E0C5
:1017D0000CD28093960081E890E007D28093970026
:1017E00061E083E00BD761E084E008D762E080E04D
:1017F00005D762E081E002D760E083E038D660E0A0
:1018000084E035D6BDD420918A0130918B01232B01
:1018100051F52FE733E030938B0120938A0110922A
:101820008D0110928C0160938E0170938F018093D3
:1018300090019093910188EE93E0A0E0B0E0809356
:10184000920190939301A0939401B093950181E04C
:1018500090E0A0E0B0E08093960190939701A09370
:101860009801B093990111E480918A0190918B01C4
:10187000892B09F457C084D46B017C0180918E01BF
:1018800090918F01A0919001B0919101B701A601B3
:10189000481B590B6A0B7B0B80919201909193012D
:1018A000A0919401B0919501481759076A077B07E9
:1018B000C8F1E0918A01F0918B0180918C019091A7
:1018C0008D0109958111BBC0482F50E070E060E0A8
:1018D00040939601509397016093980170939901FA
:1018E0008111A4C010928B0110928A0110928D0177
:1018F00010928C0110928E0110928F011092900123
:101900001092910110929201109293011092940101
:1019100010929501109296011092970110929801E1
:10192000109299012DD480918A0190918B01892B7D
:1019300009F026D425D4CAE6D1E088819981892B83
:10194000B1F171D46B017C018C819D81AE81BF812D
:10195000B701A601481B590B6A0B7B0B888599853B
:10196000AA85BB85481759076A077B0700F1E881FC
:10197000F9818A819B810995882351F081E04C850A
:101980005D856E857F85452B462B472B09F480E0CE
:10199000482F50E070E060E04C875D876E877F875E
:1019A000882309F45CC0CC82DD82EE82FF826096DF
:1019B00021E0CA38D20708F236D4CAE6D1E08881DD
:1019C0009981892B09F05CC0609681E0CA38D807FC
:1019D000B0F329D428D4C0909900D0909A00E09018
:1019E0009B00F0909C00C616D706E806F90608F0A2
:1019F0003BCF80B58F6080BD3798F89481B5886102
:101A000081BD11BD789485B7806285BF889585B703
:101A10008F7D85BF01D580B5807F80BD80E8A6D34E
:101A20008C3F934008F040C0FFD41ECFC0928E017F
:101A3000D0928F01E0929001F092910173CF81E0FA
:101A40004091960150919701609198017091990190
:101A5000452B462B472B09F037CF80E035CF198235
:101A600018821B821A821C821D821E821F82188687
:101A700019861A861B861C861D861E861F8697CF92
:101A8000D2D3CC80DD80EE80FF806C197D098E0979
:101A90009F09C884D984EA84FB846C157D058E0572
:101AA0009F0508F491CF95CF1092990010929A005B
:101AB00010929B0010929C00D7CEDC016C91615675
:101AC0006A3108F0605E6F5B6D93C1F70895E8942A
:101AD00009C097FB3EF490958095709561957F4F76
:101AE0008F4F9F4F9923A9F0F92F96E9BB27939524
:101AF000F695879577956795B795F111F8CFFAF434
:101B0000BB0F11F460FF1BC06F5F7F4F8F4F9F4F64
:101B100016C0882311F096E911C0772321F09EE8C2
:101B2000872F762F05C0662371F096E8862F70E028
:101B300060E02AF09A95660F771F881FDAF7880F02
:101B40009695879597F9089597F99F6780E870E0D3
:101B500060E008959FEF80EC089500240A94161623
:101B6000170618060906089500240A94121613068B
:101B7000140605060895092E0394000C11F4882319
:101B800052F0BB0F40F4BF2B11F460FF04C06F5F35
:101B90007F4F8F4F9F4F089557FD9058440F551F0B
:101BA00059F05F3F71F04795880F97FB991F61F0DF
:101BB0009F3F79F087950895121613061406551F56
:101BC000F2CF4695F1DF08C0161617061806991FC2
:101BD000F1CF86957105610508940895E894BB27B7
:101BE00066277727CB0197F90895E199FECF9FBB30
:101BF0008EBBE09A99278DB30895262FE199FECFE9
:101C00001CBA9FBB8EBB2DBB0FB6F894E29AE19A2B
:101C10000FBE01960895002480FD060E660F11F098
:101C20008695D1F7802D08950CD0A5CF9DDF40F08B
:101C300094DF30F021F45F3F19F086CF5111CFCF00
:101C400089CFAADF98F39923C9F35523B1F3951BE4
:101C5000550BBB27AA2762177307840738F09F5FCD
:101C60005F4F220F331F441FAA1FA9F333D00E2E3C
:101C70003AF0E0E830D091505040E695001CCAF7A9
:101C800029D0FE2F27D0660F771F881FBB1F26176E
:101C900037074807AB07B0E809F0BB0B802DBF0141
:101CA000FF2793585F4F2AF09E3F510568F04CCFB5
:101CB00096CF5F3FECF3983EDCF38695779567957A
:101CC000B795F7959F5FC9F7880F911D96958795F2
:101CD00097F90895E1E0660F771F881FBB1F621711
:101CE00073078407BA0720F0621B730B840BBA0BCF
:101CF000EE1F88F7E095089557DF88F09F5790F022
:101D0000B92F9927B751A0F0D1F0660F771F881F20
:101D1000991F1AF0BA95C9F712C0B13081F05EDF91
:101D2000B1E008955BCF672F782F8827B85F39F02F
:101D3000B93FCCF3869577956795B395D9F73EF47F
:101D400090958095709561957F4F8F4F9F4F089527
:101D50000024552704C0080E591F880F991F0097AB
:101D600029F076956795B8F37105B9F7802D952F11
:101D70000895EE27FF27AA27BB2708C0A20FB31F8D
:101D8000E41FF51F220F331F441F551F969587959B
:101D90007795679598F37040A9F7009799F7BD017B
:101DA000CF010895AA1BBB1B51E107C0AA1FBB1F8F
:101DB000A617B70710F0A61BB70B881F991F5A95D7
:101DC000A9F780959095BC01CD010895A1E21A2E46
:101DD000AA1BBB1BFD010DC0AA1FBB1FEE1FFF1FCF
:101DE000A217B307E407F50720F0A21BB30BE40B1F
:101DF000F50B661F771F881F991F1A9469F7609566
:101E00007095809590959B01AC01BD01CF0108951F
:101E1000EE0FFF1F0590F491E02D099491110895A4
:101E200081568A5108F480528558089568177907B9
:101E300068F4FB01DC01E40FF51FA40FB51F02C01D
:101E400002900E9241505040D8F7089507C0FB0110
:101E5000DC0101900D920020E1F70895FB01DC0107
:101E600002C001900D9241505040D8F70895F89467
:021E7000FFCFA2
:101E7200FF14000000000000005501E401D701A595
:101E820001C20154013232204665622032303234BE
:021E920000004E
:00000001FF
