:100000004CC070C061CBABCA6DC05FCA6BC00CCBBB
:1000100069C068C067C066C061CB64C063C0FF8050
:100020008080808080808080808080E08094FC7CE4
:100030003C1C0C0484C4E4F48080808C803280609A
:1000400088A8904028D0082078B048E0A0F068D870
:100050005010C030187098B8C88080808080806050
:1000600088A8904028D0082078B048E0A0F068D850
:100070005010C030187098B8C80000000037000158
:1000800002040810200000000038000202020202F0
:100090000201030000040000780B11241FBECFE50D
:1000A000D2E0DEBFCDBF21E0A6EAB0E001C01D92E4
:1000B000A53CB207E1F710E0A0E6B0E0E6EBFEE118
:1000C00002C005900D92A63AB107D9F710E0CDE431
:1000D000D0E003C02197FE01BDDECC34D107D1F7BB
:1000E00066DBE7CE8DCF809160008F3F29F189B725
:1000F0008B7989BF10BE8CB581788CBD1FBC1EBCAE
:100100001BBC1DBC89B78B7989BF84E688BF80E49E
:100110008CBD8FEF8DBD86EC80BFE091CC00F0915F
:10012000CD00309731F08091CB009081809589236C
:1001300080838FEF809360000895449A4398469897
:10014000479AE6EFF0E0118A0784F089E02D82A15A
:1001500093A191A380A308958F7787B987B187B9B9
:10016000369A3699FECF84B195B108953FB7F89489
:100170008091C3009091C400A091C500B091C600C9
:1001800022B708B601FE05C02F3F19F00196A11D48
:10019000B11D3FBFBA2FA92F982F8827BC01CD01D1
:1001A000620F711D811D911D44E0660F771F881F2E
:1001B000991F4A95D1F70895CF92DF92EF92FF925F
:1001C000CF93DF93D3DFEB0188ECC82ED12CE12C49
:1001D000F12CCCDF6C1B7D0B683E7340A0F0C1148A
:1001E000D104E104F10439F4DF91CF91FF90EF9055
:1001F000DF90CF90089581E0C81AD108E108F10896
:10020000C851DC4FE6CFC114D104E104F10409F771
:10021000EBCF2FB7F8946091BF007091C000809130
:10022000C1009091C2002FBF0895CF92DF92EF924C
:10023000FF92CF93DF936B017C01EA01EADF20910B
:10024000950130919601232B59F02091A501309111
:10025000A601F0E0E0E0232BA9F4E5EAF1E002C01A
:10026000E5E9F1E0D183C083138212826483758350
:1002700086839783C086D186E286F38614861586A8
:1002800016861786CF01DF91CF91FF90EF90DF9018
:10029000CF90089508952FB7F894FC0145855685B1
:1002A0003AE06095089420F478B3752378BB04C0D5
:1002B00078B3742B78BB000001DA00DAFFD9FED9DD
:1002C00066953A9581F72FBF81E090E00895CF932E
:1002D000DF936DE086EF90E0DEDFEC016AE086EF11
:1002E00090E0D9DF8C0F9D1FDF91CF910895DC0145
:1002F0001F96ED91FC9120A131A182A193A1281715
:10030000390779F0A2A1B3A1AE0FBF1F8C9122A132
:1003100033A12F5F3F4F2F71332733A322A390E0E8
:1003200008958FEF9FEF0895DC011F96ED91FC91EA
:1003300020A131A182A193A12817390739F082A108
:1003400093A1E80FF91F808190E008958FEF9FEF50
:100350000895DC011F96ED91FC9180A191A122A14D
:1003600033A1821B930B8F7199270895CF92DF924F
:10037000EF92FF920F931F93CF93DF936C01EB01EA
:100380007B01E40EF51E10E000E0CE15DF0561F004
:100390006991D601ED91FC910190F081E02DC601AB
:1003A0000995080F191FF1CFC801DF91CF911F9157
:1003B0000F91FF90EF90DF90CF900895F89414BEC6
:1003C00081B5886181BD11BC7894089522DF6851A0
:1003D0007C4F8F4F9F4F6093BA007093BB00809308
:1003E000BC009093BD00089587FF09C08F7771F11D
:1003F000813071F1823071F1833071F18FEF90E0D3
:10040000FC01EF56FF4F3491FC01E158FF4F24915E
:10041000FC01E557FF4FE491EE23B9F0332329F0B7
:100420003130E1F48AB58F778ABDF0E0EE0FFF1F1F
:10043000EB57FF4FA591B4918FB7611120C0F8948D
:10044000EC9120952E232C938FBF089585E0D7CF74
:1004500082E0D5CF84E0D3CF83E0D1CF323019F41E
:100460008AB58F7DE1CF333021F480B78F7D80BF97
:10047000DCCF3430D1F68CB58F7D8CBDD6CFF894DF
:10048000EC912E2BE0CF60E083E0AEDF8091B600F0
:10049000811129CE0895F7DF85E090E09093B500B3
:1004A0008093B4006091AE007091AF0090E080E066
:1004B00042E253E0BADE80E00895CF93DF9390E00C
:1004C000FC01E158FF4F249185579F4FFC01849117
:1004D0008823C9F090E0880F991FFC01E758FF4F6F
:1004E000A591B491FC01EB57FF4FC591D4916111D7
:1004F0000DC09FB7F8948C91209582238C938881AE
:10050000282328839FBFDF91CF910895623051F453
:100510009FB7F8943C91822F809583238C93E88138
:100520002E2BEFCF8FB7F894EC912E2B2C938FBFFF
:10053000EACFCF92DF92EF92FF9240916000443079
:1005400071F4C090CE00D090CF00E090D000F09039
:10055000D100C616D706E806F90609F461C06B019A
:100560007C01C092CE00D092CF00E092D000F092F9
:10057000D1004F3F11F510BE8CB581788CBD1FBCEA
:100580001EBC1BBC1DBC89B78B7989BF88B784662C
:1005900088BF80E880BF1092CD001092CC001092EE
:1005A000CB008CB58F7D8CBD8CB580618CBD61E03E
:1005B00084E083DF84E08093600080916000843079
:1005C00079F580B7807F80BF1FBC60E874E88EE15A
:1005D00090E0A70196011CDC81E08F5F569547955E
:1005E000379527952F3F31054105510519F010F03A
:1005F0008F3099F79FEF920F9DBD2150310941092E
:1006000051092EBD4FEF5FEFBA014093C7005093E1
:10061000C8006093C9007093CA0090B7892B80BF4F
:10062000FF90EF90DF90CF90089561E083E0DCDEF3
:100630008091B600882329F068E572E080E090E0C0
:1006400078CF08958091B2009091B30081309105E8
:10065000D1F41092B1001092B00081E090E090933C
:10066000B5008093B4001092B3001092B200DDDFA9
:100670006091AE007091AF0090E080E04BE452E0FA
:10068000D4DD80E0089582309105C1F41092B1006C
:100690001092B00082E090E09093B5008093B40097
:1006A0001092B3001092B200C0DF8091AE00909122
:1006B000AF0063E070E06EDBBC01DECF83309105FC
:1006C00041F2049719F3DFDE1092B5001092B400E6
:1006D0001092B3001092B200D4CFFC010190002020
:1006E000E9F73197AF01481B590BBC0186EF90E049
:1006F0003DCECF93DF93F1DFEC01E9DD8C0F9D1F41
:10070000DF91CF9108951092B5001092B40085E763
:1007100090E0EFDF12DD62E080E0CFDE62E081E0BA
:10072000CCCEA0E3B1E085E6FD0111928A95E9F710
:10073000E8E0F1E0B28FA18F1386158E148E138E30
:10074000118660E0878150CECF93DF93EB016FDAA3
:100750008883CE01DF91CF910895CF92DF92EF92FF
:10076000FF920F931F93CF93DF93EB017B0129E25D
:10077000E20EF11C8B016C01C61AD70AC601800F6C
:10078000911F55DAF80181938F01EE15FF05B1F73E
:10079000CE01DF91CF911F910F91FF90EF90DF90ED
:1007A000CF900895FF920F931F93CF93DF93EC01A7
:1007B0008B01FB01F0803BDAF81619F06F2DCE01AA
:1007C0003EDAF801F1802196CE0131DAF81619F0FF
:1007D0006F2DCE0134DAC801DF91CF911F910F91B7
:1007E000FF9008954F925F926F927F928F929F92A7
:1007F000AF92BF92CF92DF92EF92FF920F931F932F
:10080000CF93DF93CDB7DEB7C655D1090FB6F894B5
:10081000DEBF0FBECDBF8091B4009091B5000697AA
:1008200019F5F8948091280190912901A0912A014D
:10083000B0912B010196A11DB11D809328019093C9
:100840002901A0932A01B0932B017894809124016F
:100850009091250183309105CCF4813091050CF005
:100860009EC1892B09F443C0B0995BC2AFDD809172
:10087000B4009091B5008630910509F0E8C251DFCF
:1008800002DE1092B5001092B4004DC2883091057E
:100890000CF4DDC1089741F710920C0180910E0114
:1008A00090911001992309F474C161E09DDD61E02C
:1008B00080910F0199DD40912801509129016091AB
:1008C0002A0170912B0180912C0190912D01A09112
:1008D0002E01B0912F0184179507A607B70720F6C0
:1008E000109212011092250110922401BDCF109296
:1008F0000C0180910D01882309F4B6CF8090280166
:1009000090902901A0902A01B0902B0100911C0128
:10091000602F0F3108F06EE170E090E080E020E69B
:100920003AEE40E050E047DA860E971EA81EB91E48
:1009300080921D0190921E01A0921F01B092200191
:10094000E0902101F090220160911801709119014D
:1009500080911A0190911B0120E3E21621E0F2063A
:10096000D1F520912301211136C0E09130010E2EE6
:10097000000CFF0BE250F040E491E0932301209142
:100980001201222341F128E030E030932501209329
:100990002401C0902801D0902901E0902A01F09014
:1009A0002B0127E030E040E050E005DAC60ED71E0C
:1009B000E81EF91EC0922C01D0922D01E0922E016A
:1009C000F0922F01C0922C01D0922D01E0922E01C5
:1009D000F0922F0149CF10912301112309F494C003
:1009E000103819F11F3F09F05BC0C0902801D0906A
:1009F0002901E0902A01F0902B0127E030E040E04F
:100A000050E0D9D9C60ED71EE81EF91EC0922C019F
:100A1000D0922D01E0922E01F0922F0185E090E01E
:100A200090932501809324011FCF809028019090FE
:100A30002901A0902A01B0902B0123E030E040E092
:100A400050E0B9D9860E971EA81EB91E80922C01BF
:100A500090922D01A0922E01B0922F0184E090E09F
:100A60009093250180932401C70101969093220160
:100A700080932101809113018F5F80931301D7012F
:100A80001196EC91E11103C010922301EDCE0E2ED0
:100A9000000CFF0BE250F040E491E0932301E4CE20
:100AA000C0902801D0902901E0902A01F0902B01FC
:100AB00017FF1BC023E030E040E050E07CD9C60EB9
:100AC000D71EE81EF91EC0922C01D0922D01E09293
:100AD0002E01F0922F0182E090E090932501809307
:100AE0002401110F10932301BFCEC60ED71EE81E9E
:100AF000F91EC0922C01D0922D01E0922E01F092AD
:100B00002F0181E090E0E9CF27E030E040E050E0C5
:100B100052D9AB01BC018091280190912901A0918B
:100B20002A01B0912B01840F951FA61FB71F011139
:100B30000BC080932C0190932D01A0932E01B093B4
:100B40002F0187E090E06CCF88169906AA06BB06B5
:100B5000B8F48091280190912901A0912A01B091C7
:100B60002B01840F951FA61FB71F80932C01909314
:100B70002D01A0932E01B0932F0186E090E050CF7D
:100B800080922C0190922D01A0922E01B0922F0103
:100B9000F4CF882311F060E027DC60E089CE81E0AB
:100BA00080930C0180910E0190911001992319F00E
:100BB00061E01ADC02C08111FBCF61E080910F017E
:100BC00013DC409128015091290160912A01709114
:100BD0002B0180912C0190912D01A0912E01B091BB
:100BE0002F0184179507A607B70708F03DCE10928E
:100BF0000C018091100161E0811107C080910E010C
:100C0000882311F060E0F0DB60E080910F01ECDB05
:100C10008091280190912901A0912A01B0912B0186
:100C2000409118015091190160911A0170911B01B6
:100C3000840F951FA61FB71F80932C0190932D0141
:100C4000A0932E01B0932F0183E090E0E9CE1092A3
:100C50000C018091100161E0811107C080910E01AB
:100C6000882311F060E0C0DB60E080910F01BCDB05
:100C7000409128015091290160912A0170912B0126
:100C800080912C0190912D01A0912E01B0912F0106
:100C900084179507A607B70708F0E6CD80912401D1
:100CA0009091250185309105F1F4E0912101F091B9
:100CB0002201CF010196909322018093210180911E
:100CC00013018F5F80931301E181E11103C0109242
:100CD000230108CE0E2E000CFF0BE250F040E491F1
:100CE000E0932301FFCD079709F0FCCDE0E3F1E0AD
:100CF00085E6DF011D928A95E9F7109211011092A5
:100D0000130180911001882329F060E080910F0188
:100D10006BDBE8CD80910E018823B9F360E064DBE2
:100D2000F4CF1092AD00B19B99C01092AC0081E855
:100D300013DA63E270E02ED86FEF73E055D86B5F83
:100D40007F4F6B01F12CE12CC0926100D0926200C8
:100D5000E0926300F092640060EB74E080E090E069
:100D6000A701960155D83093AF002093AE00C7017C
:100D7000B601CFD69B01AC01209308013093090145
:100D800040930A0150930B0160E070E086E994E41F
:100D90006DD7D4D7609318017093190180931A010D
:100DA00090931B0180E8D8D9E090AA00F090AB00A6
:100DB0009C012F5F31402F34310508F464C0245B5F
:100DC00031092F34310508F485C0815293408F34A6
:100DD000910508F482C0E114F10409F466C00091A1
:100DE000B4001091B500F2DA14DA8090A600909069
:100DF000A700A090A800B090A90024013501EAE066
:100E00004E0E511C611C711C6415750586059705F5
:100E1000C8F0FFD9F8EE8F0EF3E09F1EA11CB11CA5
:100E2000681579058A059B0568F40630110521F0DF
:100E30000930110509F0E8C074DC25DB1092B5001B
:100E40001092B4001092AB001092AA002EC0099725
:100E500009F415CD81E08093AD0065CFB7DA8091BC
:100E6000B4009091B5008630910511F0099739F4DE
:100E700058DC09DB1092B5001092B40058CF81E025
:100E80008093AC0054CF01E010E0E114F10441F58F
:100E90001093AB000093AA00BCD96093A600709396
:100EA000A7008093A8009093A900E091B400F0916E
:100EB000B500EA30F10508F005C1E05AF84F099491
:100EC000CAC019C161C1FEC0FDC09AC1BEC1D8C1AE
:100ED000D9C1D6C102E010E0D8CF03E010E0D5CFF1
:100EE00098D9AB01BC018091A6009091A700A09178
:100EF000A800B091A90088519C4FAF4FBF4F8417F5
:100F00009507A607B70788F6B7E0EB16F10469F274
:100F10000230110591F003301105B9F157DA89E07B
:100F200090E09093B5008093B4007FDB87E090E081
:100F30009093AB008093AA00B8CF8091B60088232D
:100F400091F01092B6001A821982BE016F5F7F4F36
:100F500081E890E027DC60E971E080E090E0E9DA88
:100F60002BD9C1D8E3CF81E08093B60081E090E037
:100F70009A838983BE016F5F7F4F81E890E012DC26
:100F800068EE73E080E090E0EACF20DA8091B40070
:100F90009091B500089711F4B6DBC8CF8BB78F7D61
:100FA0008BBF88E090E09093B5008093B40061E03F
:100FB00080E083DA60E081E080DA8EE080930701F0
:100FC0004398469A4798419A409A87B320910201E4
:100FD000922F9095982397BB88B3822B88BB97B3A9
:100FE00020910301922B97BB88B3822B88BB449A34
:100FF000439A6DD98FE790E07CDB8FE890E06DDB62
:1010000089E990E076DB92CF86E090E09093B5009E
:101010008093B4008E2D69E220D68952BE016F5FA5
:101020007F4F90E09ADBBE016F5F7F4F80E391E0DE
:1010300030D780E391E090932201809321011092B8
:10104000130110922501109224011092230181E0D6
:1010500080931101F7CE8091AC00882391F08091AC
:10106000AE009091AF002091B9002223B1F022E0B0
:1010700030E03093B5002093B40063E070E08AD68E
:1010800012C08091AD008823E9F08091AE0090916C
:10109000AF002091B900222351F321E030E03093DA
:1010A000B5002093B400BC0190E080E04BE452E036
:1010B000BCD81092B1001092B0001092B300109200
:1010C000B200B3DA81E0CA5ADF4F0FB6F894DEBF40
:1010D0000FBECDBFDF91CF911F910F91FF90EF9089
:1010E000DF90CF90BF90AF909F908F907F906F9048
:1010F0005F904F9008958091B7009091B80000974D
:1011000009F58091B900882369F08091AC008823AB
:1011100061F081E090E09093B1008093B00082E0B4
:1011200090E048C08091AD00F2CF8091AD00811178
:10113000C9CF8091AC008111C5CF1092B30010923D
:10114000B200C0CF019709F0BDCF8091B9008823CC
:10115000C1F08091AC008111DCCF8091AD00811194
:10116000B1CF8091AC008111ADCF8091B200909150
:10117000B300029709F0A6CF1092B1001092B00010
:10118000A1CF8091AD00E7CF8091B7009091B800DA
:101190000097C1F48091B900882389F08091AD0057
:1011A000882319F282E090E09093B1008093B00020
:1011B00081E090E09093B3008093B20083CF809160
:1011C000AC00EECF019709F07DCF8091B900882364
:1011D000A1F08091AD008111E5CF8091AD0081112A
:1011E00071CF8091AC0081116DCF8091B200909150
:1011F000B300019709F066CFBFCF8091AC00EBCF71
:10120000E5D88091B0009091B1008230910569F4E9
:101210008091B900882331F08091AD00882309F4D2
:1012200051CFC6CF8091AC00F9CF019709F04ACFDA
:101230008091B900882331F08091AC00882309F4B3
:1012400041CF6DCF8091AD00F9CFC0D88091110111
:10125000811105C048D71092B5001092B40080915A
:10126000B600882309F42ECF80910C01882331F039
:1012700068E572E080E090E05CD924CF34D722CFDB
:10128000A5D820CFA3D886EF90E063D8892B09F4A6
:1012900019CF8E010F5F1F4F6801F12CE12CB9D7D8
:1012A0006093FE007093FF00809300019093010112
:1012B00086EF90E01CD897FFF8C0ABD78090FE0077
:1012C0009090FF00A0900001B09001016819790989
:1012D0008A099B098090FA009090FB00A090FC0086
:1012E000B090FD00681579058A059B0508F3F801A3
:1012F000EE0DFF1D10828A818F3309F04DC00981E8
:10130000002E000C110BC801ABD5813391050CF4F4
:10131000D9CE843391058CF18735910509F0D2CE71
:10132000109161007091620080916300909164005F
:101330002F961FAE2F977E01FEE4EF0EF11C2AE0E0
:10134000822E912CA12CB12C612FA501940160D586
:10135000822F6AE082D4181B1A30E4F4105DD701A2
:101360001E937D01122F732FCA01232B242B252BB3
:1013700059F7CD01B2D9ABD7A5CEC801C19769E263
:1013800070E008D5BE01625D7F4FE7D9CE018E9631
:10139000B0D998CE195CE3CF8A3309F093CEF980A7
:1013A0008F2D0F2C000C990B5BD58E34910509F411
:1013B00060C0DCF58134910509F460C05CF5C1972B
:1013C000039708F07FCE48E250E0BE016D5F7F4F8B
:1013D000C8014ED5C80193D38FEC8F0D90E069E220
:1013E00070E0D8D44C01F12CE12CF801B1908F01C0
:1013F0006401CE0CDF1CC6011AD4B81619F06B2D8F
:10140000C6011DD4FFEFEF1AFF0A2DE2E216F10428
:1014100061F758CE8234910509F054CE81E090E016
:101420009093B8008093B7002DC08235910599F054
:101430004CF48F34910509F045CE1092B6001FA6EA
:101440001EA62DC08335910519F18835910509F047
:1014500039CE59D937CE81E08093B90081E090E050
:101460009FA78EA7BE01625D7F4F8BE790E09AD960
:1014700029CE1092B9001FA61EA6F4CF1092B80074
:101480001092B70067EB70E080E890E08BD91ACE3D
:1014900081E08093B60081E090E09FA78EA7BE0117
:1014A000625D7F4F81E890E0E2CF8A30910509F4D8
:1014B0001ECFD6018D936D01BFEFEB1AFB0AECE254
:1014C000EE16F10409F0EBCE12CF1F920F920FB679
:1014D0000F9211242F933F938F939F93AF93BF93BA
:1014E0008091BF009091C000A091C100B091C20056
:1014F0003091BE002CE0230F2D3768F12FE8230F29
:101500000596A11DB11D2093BE008093BF0090934E
:10151000C000A093C100B093C2008091C30090911D
:10152000C400A091C500B091C6000196A11DB11DD7
:101530008093C3009093C400A093C500B093C600ED
:10154000BF91AF919F918F913F912F910F900FBEBF
:101550000F901F9018950496A11DB11DD4CF1F9216
:101560000F920FB60F9211242F933F934F935F93D7
:101570006F937F938F939F93AF93BF93EF93FF935B
:101580008091C7009091C800A091C900B091CA0095
:10159000892B8A2B8B2B61F18091C7009091C80019
:1015A000A091C900B091CA00181619061A061B06A8
:1015B0008CF58091C7009091C800A091C900B091AE
:1015C000CA000197A109B1098093C7009093C80090
:1015D000A093C900B093CA008091C7009091C80041
:1015E000A091C900B091CA00892B8A2B8B2B91F452
:1015F0007AD5FF91EF91BF91AF919F918F917F919C
:101600006F915F914F913F912F910F900FBE0F906F
:101610001F9018959091CB00E091CC00F091CD00F7
:10162000808189278083E5CF1F920F920FB60F929A
:1016300011242F933F934F935F937F938F939F93A7
:10164000AF93BF93EF93FF934091020120E038E006
:1016500035D034D033D032D031D0889476B374239F
:1016600009F0089427953A9509F0F3CF27D026D0B2
:10167000E0910501F091060180A191A101968F7181
:10168000992742A153A18417950739F0A0A1B1A1D0
:10169000AE0FBF1F2C9391A380A3449AFF91EF91AB
:1016A000BF91AF919F918F917F915F914F913F91AA
:1016B0002F910F900FBE0F901F90189580910701EA
:1016C000982F9A95F1F708951F920F920FB60F92E7
:1016D00011240F900FBE0F901F9018951F920F921C
:1016E0000FB60F9211240F900FBE0F901F901895F8
:1016F0001F93CF93DF93E6EFF0E01382128288EE20
:1017000093E0A0E0B0E084839583A683B78389E665
:1017100090E09183808382ED90E0908B878782E0D8
:10172000848711E015878EEF8687118A80E1E5EBCB
:10173000F1E0DF011D928A95E9F780E2E5E9F1E049
:10174000DF011D928A95E9F7609161007091620056
:101750008091630090916400DCD19B01AC01C8E0F2
:10176000D1E01C821D8383E08E838F8318861A86C6
:101770001B861C8A1A8E198E1B8E19862883398324
:101780004A835B8360E070E086E994E46FD2D6D24E
:10179000688B798B8A8B9B8B61E083E08ED61D8E64
:1017A0001C8E1F8E1E8EDF91CF911F91089520E811
:1017B00026BD91E096BD83E08ABD83BF789489B74A
:1017C000826089BF80E48CBD8FEF8DBD86EC80BFC9
:1017D00085E886B9F89426BD96BD04B603FCEED51F
:1017E00085B7806285BF85B7877E806185BF8BB7EF
:1017F00080628BBF85B3836085BB789469EB70E0B2
:101800008BE790E0A1D780E890E011D28093B700F9
:1018100081E890E00CD28093B80066EB70E081E83C
:1018200090E092D761E083E048D661E084E045D65D
:1018300062E080E042D662E081E03FD660E083E093
:10184000D3D560E084E0D0D591D42091B50130911A
:10185000B601232B51F522EF33E03093B6012093EC
:10186000B5011092B8011092B7016093B90170935D
:10187000BA018093BB019093BC0188EE93E0A0E095
:10188000B0E08093BD019093BE01A093BF01B093DF
:10189000C00181E090E0A0E0B0E08093C1019093AE
:1018A000C201A093C301B093C40111E48091B501BA
:1018B0009091B601892B09F457C058D46B017C0173
:1018C0008091B9019091BA01A091BB01B091BC0186
:1018D000B701A601481B590B6A0B7B0B8091BD0118
:1018E0009091BE01A091BF01B091C0014817590766
:1018F0006A077B07C8F1E091B501F091B6018091CC
:10190000B7019091B80109958111BBC0482F50E0F3
:1019100070E060E04093C1015093C2016093C30145
:101920007093C4018111A4C01092B6011092B50148
:101930001092B8011092B7011092B9011092BA0139
:101940001092BB011092BC011092BD011092BE0119
:101950001092BF011092C0011092C1011092C201F9
:101960001092C3011092C40101D48091B5019091ED
:10197000B601892B09F0FAD3F9D3C5E9D1E0888102
:101980009981892BB1F145D46B017C018C819D81BA
:10199000AE81BF81B701A601481B590B6A0B7B0BB7
:1019A00088859985AA85BB85481759076A077B07EB
:1019B00000F1E881F9818A819B810995882351F0A2
:1019C00081E04C855D856E857F85452B462B472BB9
:1019D00009F480E0482F50E070E060E04C875D87BC
:1019E0006E877F87882309F45CC0CC82DD82EE821B
:1019F000FF82609621E0C53BD20708F20AD4C5E910
:101A0000D1E088819981892B09F05CC0609681E0E2
:101A1000C53BD807B0F3FDD3FCD3C090BA00D0903B
:101A2000BB00E090BC00F090BD00C616D706E806EB
:101A3000F90608F03BCF80B58F6080BD3798F894E9
:101A400081B5886181BD11BD789485B7806285BFFD
:101A5000889585B78F7D85BFB1D480B5807F80BDE7
:101A600080E87AD38C3F934008F040C0AFD41ECFBB
:101A7000C092B901D092BA01E092BB01F092BC01D0
:101A800073CF81E04091C1015091C2016091C301C7
:101A90007091C401452B462B472B09F037CF80E0CE
:101AA00035CF198218821B821A821C821D821E82E7
:101AB0001F82188619861A861B861C861D861E861E
:101AC0001F8697CFA6D3CC80DD80EE80FF806C1977
:101AD0007D098E099F09C884D984EA84FB846C152A
:101AE0007D058E059F0508F491CF95CF1092BA0021
:101AF0001092BB001092BC001092BD00D7CEDC014A
:101B00006C9161566A3108F0605E6F5B6D93C1F74E
:101B10000895E89409C097FB3EF4909580957095E0
:101B200061957F4F8F4F9F4F9923A9F0F92F96E929
:101B3000BB279395F695879577956795B795F1119E
:101B4000F8CFFAF4BB0F11F460FF1BC06F5F7F4F3B
:101B50008F4F9F4F16C0882311F096E911C077234D
:101B600021F09EE8872F762F05C0662371F096E856
:101B7000862F70E060E02AF09A95660F771F881F25
:101B8000DAF7880F9695879597F9089597F99F67E3
:101B900080E870E060E008959FEF80EC08950024F5
:101BA0000A941616170618060906089500240A94C2
:101BB00012161306140605060895092E0394000C48
:101BC00011F4882352F0BB0F40F4BF2B11F460FFD7
:101BD00004C06F5F7F4F8F4F9F4F089557FD905800
:101BE000440F551F59F05F3F71F04795880F97FBE1
:101BF000991F61F09F3F79F087950895121613069B
:101C00001406551FF2CF4695F1DF08C016161706C9
:101C10001806991FF1CF86957105610508940895FE
:101C2000E894BB2766277727CB0197F90895E199B8
:101C3000FECF9FBB8EBBE09A99278DB30895262FC8
:101C4000E199FECF1CBA9FBB8EBB2DBB0FB6F8949B
:101C5000E29AE19A0FBE01960895002480FD060ED7
:101C6000660F11F08695D1F7802D08950CD0A5CF81
:101C70009DDF40F094DF30F021F45F3F19F086CF14
:101C80005111CFCF89CFAADF98F39923C9F35523F8
:101C9000B1F3951B550BBB27AA276217730784075F
:101CA00038F09F5F5F4F220F331F441FAA1FA9F315
:101CB00033D00E2E3AF0E0E830D091505040E69507
:101CC000001CCAF729D0FE2F27D0660F771F881F68
:101CD000BB1F261737074807AB07B0E809F0BB0B57
:101CE000802DBF01FF2793585F4F2AF09E3F51057B
:101CF00068F04CCF96CF5F3FECF3983EDCF38695CF
:101D000077956795B795F7959F5FC9F7880F911DF0
:101D10009695879597F90895E1E0660F771F881FDC
:101D2000BB1F621773078407BA0720F0621B730B8F
:101D3000840BBA0BEE1F88F7E095089557DF88F003
:101D40009F5790F0B92F9927B751A0F0D1F0660FA7
:101D5000771F881F991F1AF0BA95C9F712C0B130C2
:101D600081F05EDFB1E008955BCF672F782F882781
:101D7000B85F39F0B93FCCF3869577956795B39501
:101D8000D9F73EF490958095709561957F4F8F4F70
:101D90009F4F08950024552704C0080E591F880F2F
:101DA000991F009729F076956795B8F37105B9F7F3
:101DB000802D952F0895EE27FF27AA27BB2708C05F
:101DC000A20FB31FE41FF51F220F331F441F551F1F
:101DD000969587957795679598F37040A9F7009742
:101DE00099F7BD01CF010895AA1BBB1B51E107C0A4
:101DF000AA1FBB1FA617B70710F0A61BB70B881F9B
:101E0000991F5A95A9F780959095BC01CD01089529
:101E1000A1E21A2EAA1BBB1BFD010DC0AA1FBB1FEE
:101E2000EE1FFF1FA217B307E407F50720F0A21B60
:101E3000B30BE40BF50B661F771F881F991F1A94CD
:101E400069F760957095809590959B01AC01BD01F7
:101E5000CF010895EE0FFF1F0590F491E02D099436
:101E60009111089581568A5108F480528558089539
:101E70006817790768F4FB01DC01E40FF51FA40F74
:101E8000B51F02C002900E9241505040D8F70895FD
:101E900007C0FB01DC0101900D920020E1F70895DD
:101EA000FB01DC0102C001900D9241505040D8F777
:061EB0000895F894FFCF35
:101EB600FF14000000000000004B01B601A90177E5
:101EC6000194014A014578697420554152540045F0
:101ED600746865724B65796572204D696E69004656
:101EE60069726D7761726520003134204175672013
:061EF6003230323400001E
:00000001FF
